{
  "_format": "hh-sol-artifact-1",
  "contractName": "FILL",
  "sourceName": "contracts/FILL.sol",
  "abi": [
    {
      "inputs": [
        {
          "internalType": "address",
          "name": "fleAddr",
          "type": "address"
        }
      ],
      "stateMutability": "nonpayable",
      "type": "constructor"
    },
    {
      "anonymous": false,
      "inputs": [
        {
          "indexed": true,
          "internalType": "uint256",
          "name": "id",
          "type": "uint256"
        },
        {
          "indexed": true,
          "internalType": "address",
          "name": "account",
          "type": "address"
        },
        {
          "indexed": true,
          "internalType": "bytes",
          "name": "minerAddr",
          "type": "bytes"
        },
        {
          "indexed": false,
          "internalType": "uint256",
          "name": "amountFIL",
          "type": "uint256"
        }
      ],
      "name": "Borrow",
      "type": "event"
    },
    {
      "anonymous": false,
      "inputs": [
        {
          "indexed": true,
          "internalType": "address",
          "name": "account",
          "type": "address"
        },
        {
          "indexed": false,
          "internalType": "uint256",
          "name": "amountFIL",
          "type": "uint256"
        },
        {
          "indexed": false,
          "internalType": "uint256",
          "name": "amountFLE",
          "type": "uint256"
        }
      ],
      "name": "Deposit",
      "type": "event"
    },
    {
      "anonymous": false,
      "inputs": [
        {
          "indexed": true,
          "internalType": "uint256",
          "name": "id",
          "type": "uint256"
        },
        {
          "indexed": true,
          "internalType": "address",
          "name": "account",
          "type": "address"
        },
        {
          "indexed": true,
          "internalType": "bytes",
          "name": "minerAddr",
          "type": "bytes"
        },
        {
          "indexed": false,
          "internalType": "uint256",
          "name": "amountFIL",
          "type": "uint256"
        }
      ],
      "name": "Payback",
      "type": "event"
    },
    {
      "anonymous": false,
      "inputs": [
        {
          "indexed": true,
          "internalType": "address",
          "name": "account",
          "type": "address"
        },
        {
          "indexed": false,
          "internalType": "uint256",
          "name": "amountFLE",
          "type": "uint256"
        },
        {
          "indexed": false,
          "internalType": "uint256",
          "name": "amountFIL",
          "type": "uint256"
        }
      ],
      "name": "Redeem",
      "type": "event"
    },
    {
      "anonymous": false,
      "inputs": [
        {
          "indexed": false,
          "internalType": "bytes",
          "name": "minerAddr",
          "type": "bytes"
        },
        {
          "indexed": false,
          "internalType": "bytes",
          "name": "beneficiary",
          "type": "bytes"
        },
        {
          "indexed": false,
          "internalType": "uint256",
          "name": "quota",
          "type": "uint256"
        },
        {
          "indexed": false,
          "internalType": "uint64",
          "name": "expiration",
          "type": "uint64"
        }
      ],
      "name": "StackingMiner",
      "type": "event"
    },
    {
      "anonymous": false,
      "inputs": [
        {
          "indexed": false,
          "internalType": "bytes",
          "name": "minerAddr",
          "type": "bytes"
        },
        {
          "indexed": false,
          "internalType": "bytes",
          "name": "beneficiary",
          "type": "bytes"
        },
        {
          "indexed": false,
          "internalType": "uint256",
          "name": "quota",
          "type": "uint256"
        },
        {
          "indexed": false,
          "internalType": "uint64",
          "name": "expiration",
          "type": "uint64"
        }
      ],
      "name": "UnstackingMiner",
      "type": "event"
    },
    {
      "inputs": [],
      "name": "allBorrows",
      "outputs": [
        {
          "components": [
            {
              "internalType": "uint256",
              "name": "id",
              "type": "uint256"
            },
            {
              "internalType": "address",
              "name": "account",
              "type": "address"
            },
            {
              "internalType": "uint256",
              "name": "amount",
              "type": "uint256"
            },
            {
              "internalType": "bytes",
              "name": "minerAddr",
              "type": "bytes"
            },
            {
              "internalType": "uint256",
              "name": "interestRate",
              "type": "uint256"
            },
            {
              "internalType": "uint256",
              "name": "borrowTime",
              "type": "uint256"
            },
            {
              "internalType": "uint256",
              "name": "paybackTime",
              "type": "uint256"
            },
            {
              "internalType": "bool",
              "name": "isPayback",
              "type": "bool"
            }
          ],
          "internalType": "struct FILLInterface.BorrowInfo[]",
          "name": "",
          "type": "tuple[]"
        }
      ],
      "stateMutability": "view",
      "type": "function"
    },
    {
      "inputs": [
        {
          "internalType": "bytes",
          "name": "minerAddr",
          "type": "bytes"
        },
        {
          "internalType": "address",
          "name": "bindAccount",
          "type": "address"
        },
        {
          "internalType": "string",
          "name": "message",
          "type": "string"
        },
        {
          "internalType": "bytes",
          "name": "signature",
          "type": "bytes"
        }
      ],
      "name": "bindMiner",
      "outputs": [
        {
          "internalType": "bool",
          "name": "",
          "type": "bool"
        }
      ],
      "stateMutability": "nonpayable",
      "type": "function"
    },
    {
      "inputs": [
        {
          "internalType": "bytes",
          "name": "minerAddr",
          "type": "bytes"
        },
        {
          "internalType": "uint256",
          "name": "amount",
          "type": "uint256"
        },
        {
          "internalType": "uint256",
          "name": "interest_rate",
          "type": "uint256"
        },
        {
          "internalType": "uint256",
          "name": "slippage",
          "type": "uint256"
        }
      ],
      "name": "borrow",
      "outputs": [
        {
          "internalType": "uint256",
          "name": "",
          "type": "uint256"
        }
      ],
      "stateMutability": "nonpayable",
      "type": "function"
    },
    {
      "inputs": [
        {
          "internalType": "uint256",
          "name": "amountFIL",
          "type": "uint256"
        },
        {
          "internalType": "uint256",
          "name": "exchRate",
          "type": "uint256"
        },
        {
          "internalType": "uint256",
          "name": "slippage",
          "type": "uint256"
        }
      ],
      "name": "deposit",
      "outputs": [
        {
          "internalType": "uint256",
          "name": "",
          "type": "uint256"
        }
      ],
      "stateMutability": "payable",
      "type": "function"
    },
    {
      "inputs": [
        {
          "internalType": "uint256",
          "name": "code",
          "type": "uint256"
        },
        {
          "internalType": "bytes",
          "name": "minerAddress",
          "type": "bytes"
        },
        {
          "internalType": "uint256",
          "name": "amount",
          "type": "uint256"
        }
      ],
      "name": "devManage",
      "outputs": [],
      "stateMutability": "nonpayable",
      "type": "function"
    },
    {
      "inputs": [],
      "name": "exchangeRate",
      "outputs": [
        {
          "internalType": "uint256",
          "name": "",
          "type": "uint256"
        }
      ],
      "stateMutability": "view",
      "type": "function"
    },
    {
      "inputs": [],
      "name": "feeRate",
      "outputs": [
        {
          "internalType": "uint256",
          "name": "",
          "type": "uint256"
        }
      ],
      "stateMutability": "view",
      "type": "function"
    },
    {
      "inputs": [],
      "name": "fillInfo",
      "outputs": [
        {
          "components": [
            {
              "internalType": "uint256",
              "name": "availableFIL",
              "type": "uint256"
            },
            {
              "internalType": "uint256",
              "name": "totalDeposited",
              "type": "uint256"
            },
            {
              "internalType": "uint256",
              "name": "utilizedLiquidity",
              "type": "uint256"
            },
            {
              "internalType": "uint256",
              "name": "accumulatedInterest",
              "type": "uint256"
            },
            {
              "internalType": "uint256",
              "name": "accumulatedPayback",
              "type": "uint256"
            },
            {
              "internalType": "uint256",
              "name": "accumulatedRedeem",
              "type": "uint256"
            },
            {
              "internalType": "uint256",
              "name": "accumulatedBurnFLE",
              "type": "uint256"
            },
            {
              "internalType": "uint256",
              "name": "utilizationRate",
              "type": "uint256"
            },
            {
              "internalType": "uint256",
              "name": "exchangeRate",
              "type": "uint256"
            },
            {
              "internalType": "uint256",
              "name": "interestRate",
              "type": "uint256"
            },
            {
              "internalType": "uint256",
              "name": "totalFee",
              "type": "uint256"
            }
          ],
          "internalType": "struct FILLInterface.FILLInfo",
          "name": "",
          "type": "tuple"
        }
      ],
      "stateMutability": "view",
      "type": "function"
    },
    {
      "inputs": [],
      "name": "fleAddress",
      "outputs": [
        {
          "internalType": "address",
          "name": "",
          "type": "address"
        }
      ],
      "stateMutability": "view",
      "type": "function"
    },
    {
      "inputs": [
        {
          "internalType": "address",
          "name": "account",
          "type": "address"
        }
      ],
      "name": "fleBalanceOf",
      "outputs": [
        {
          "internalType": "uint256",
          "name": "",
          "type": "uint256"
        }
      ],
      "stateMutability": "view",
      "type": "function"
    },
    {
      "inputs": [],
      "name": "interestRate",
      "outputs": [
        {
          "internalType": "uint256",
          "name": "",
          "type": "uint256"
        }
      ],
      "stateMutability": "view",
      "type": "function"
    },
    {
      "inputs": [
        {
          "internalType": "bytes",
          "name": "minerAddress",
          "type": "bytes"
        },
        {
          "internalType": "uint256",
          "name": "borrowId",
          "type": "uint256"
        }
      ],
      "name": "payback",
      "outputs": [
        {
          "internalType": "uint256",
          "name": "",
          "type": "uint256"
        }
      ],
      "stateMutability": "nonpayable",
      "type": "function"
    },
    {
      "inputs": [
        {
          "internalType": "uint256",
          "name": "amountFLE",
          "type": "uint256"
        },
        {
          "internalType": "uint256",
          "name": "exchRate",
          "type": "uint256"
        },
        {
          "internalType": "uint256",
          "name": "slippage",
          "type": "uint256"
        }
      ],
      "name": "redeem",
      "outputs": [
        {
          "internalType": "uint256",
          "name": "",
          "type": "uint256"
        }
      ],
      "stateMutability": "nonpayable",
      "type": "function"
    },
    {
      "inputs": [
        {
          "internalType": "address",
          "name": "account",
          "type": "address"
        },
        {
          "internalType": "uint256",
          "name": "amount",
          "type": "uint256"
        }
      ],
      "name": "send",
      "outputs": [],
      "stateMutability": "nonpayable",
      "type": "function"
    },
    {
      "inputs": [
        {
          "internalType": "uint64",
          "name": "newRate",
          "type": "uint64"
        }
      ],
      "name": "setExchangeRate",
      "outputs": [
        {
          "internalType": "uint256",
          "name": "",
          "type": "uint256"
        }
      ],
      "stateMutability": "nonpayable",
      "type": "function"
    },
    {
      "inputs": [
        {
          "internalType": "uint64",
          "name": "newRate",
          "type": "uint64"
        }
      ],
      "name": "setFeeRate",
      "outputs": [
        {
          "internalType": "uint256",
          "name": "",
          "type": "uint256"
        }
      ],
      "stateMutability": "nonpayable",
      "type": "function"
    },
    {
      "inputs": [
        {
          "internalType": "uint64",
          "name": "newRate",
          "type": "uint64"
        }
      ],
      "name": "setInterestRate",
      "outputs": [
        {
          "internalType": "uint256",
          "name": "",
          "type": "uint256"
        }
      ],
      "stateMutability": "nonpayable",
      "type": "function"
    },
    {
      "inputs": [
        {
          "internalType": "bytes",
          "name": "minerAddr",
          "type": "bytes"
        }
      ],
      "name": "stackingMiner",
      "outputs": [
        {
          "internalType": "bool",
          "name": "",
          "type": "bool"
        }
      ],
      "stateMutability": "nonpayable",
      "type": "function"
    },
    {
      "inputs": [
        {
          "internalType": "bytes",
          "name": "minerAddr",
          "type": "bytes"
        }
      ],
      "name": "ubindMiner",
      "outputs": [
        {
          "internalType": "bool",
          "name": "",
          "type": "bool"
        }
      ],
      "stateMutability": "nonpayable",
      "type": "function"
    },
    {
      "inputs": [
        {
          "internalType": "bytes",
          "name": "minerAddr",
          "type": "bytes"
        }
      ],
      "name": "unstackingMiner",
      "outputs": [
        {
          "internalType": "bool",
          "name": "",
          "type": "bool"
        }
      ],
      "stateMutability": "nonpayable",
      "type": "function"
    },
    {
      "inputs": [
        {
          "internalType": "address",
          "name": "account",
          "type": "address"
        }
      ],
      "name": "userBorrows",
      "outputs": [
        {
          "components": [
            {
              "internalType": "uint256",
              "name": "id",
              "type": "uint256"
            },
            {
              "internalType": "address",
              "name": "account",
              "type": "address"
            },
            {
              "internalType": "uint256",
              "name": "amount",
              "type": "uint256"
            },
            {
              "internalType": "bytes",
              "name": "minerAddr",
              "type": "bytes"
            },
            {
              "internalType": "uint256",
              "name": "interestRate",
              "type": "uint256"
            },
            {
              "internalType": "uint256",
              "name": "borrowTime",
              "type": "uint256"
            },
            {
              "internalType": "uint256",
              "name": "paybackTime",
              "type": "uint256"
            },
            {
              "internalType": "bool",
              "name": "isPayback",
              "type": "bool"
            }
          ],
          "internalType": "struct FILLInterface.BorrowInfo[]",
          "name": "",
          "type": "tuple[]"
        }
      ],
      "stateMutability": "view",
      "type": "function"
    },
    {
      "inputs": [
        {
          "internalType": "address",
          "name": "account",
          "type": "address"
        }
      ],
      "name": "userMiners",
      "outputs": [
        {
          "internalType": "bytes[]",
          "name": "",
          "type": "bytes[]"
        }
      ],
      "stateMutability": "view",
      "type": "function"
    },
    {
      "inputs": [],
      "name": "utilizationRate",
      "outputs": [
        {
          "internalType": "uint256",
          "name": "",
          "type": "uint256"
        }
      ],
      "stateMutability": "view",
      "type": "function"
    }
  ],
  "bytecode": "0x60806040523480156200001157600080fd5b50604051620061623803806200616283398181016040528101906200003791906200015d565b80600f60006101000a81548173ffffffffffffffffffffffffffffffffffffffff021916908373ffffffffffffffffffffffffffffffffffffffff16021790555062000088620000eb60201b60201c565b600460006101000a81548173ffffffffffffffffffffffffffffffffffffffff021916908373ffffffffffffffffffffffffffffffffffffffff1602179055506103e8600b81905550620f4240600c8190555061a988600d81905550506200018f565b600033905090565b600080fd5b600073ffffffffffffffffffffffffffffffffffffffff82169050919050565b60006200012582620000f8565b9050919050565b620001378162000118565b81146200014357600080fd5b50565b60008151905062000157816200012c565b92915050565b600060208284031215620001765762000175620000f3565b5b6000620001868482850162000146565b91505092915050565b615fc3806200019f6000396000f3fe60806040526004361061013f5760003560e01c806388f9c63c116100b6578063b81922051161006f578063b8192205146104b2578063bf3d3a48146104ef578063d0679d341461052c578063e88436b714610555578063ecf9d3b214610592578063f0836b44146105cf5761013f565b806388f9c63c1461038e5780638ef8961d146103cb57806393521fd6146103f4578063946e537514610431578063978bbdb91461045c578063a22667d4146104875761013f565b806365f941e81161010857806365f941e81461025657806367c484a5146102935780636c321c8a146102be57806373f8d42b146102e957806377593cc4146103265780637c3a00fd146103635761013f565b8062aeef8a1461014457806309edc239146101745780632010caac146101b15780633ba0b9a9146101ee578063459770f614610219575b600080fd5b61015e60048036038101906101599190614243565b61060c565b60405161016b91906142a5565b60405180910390f35b34801561018057600080fd5b5061019b60048036038101906101969190614505565b61078b565b6040516101a891906145db565b60405180910390f35b3480156101bd57600080fd5b506101d860048036038101906101d39190614636565b61092e565b6040516101e591906142a5565b60405180910390f35b3480156101fa57600080fd5b506102036109db565b60405161021091906142a5565b60405180910390f35b34801561022557600080fd5b50610240600480360381019061023b9190614636565b6109e5565b60405161024d91906142a5565b60405180910390f35b34801561026257600080fd5b5061027d60048036038101906102789190614636565b610a92565b60405161028a91906142a5565b60405180910390f35b34801561029f57600080fd5b506102a8610b3f565b6040516102b59190614753565b60405180910390f35b3480156102ca57600080fd5b506102d3610bd4565b6040516102e091906142a5565b60405180910390f35b3480156102f557600080fd5b50610310600480360381019061030b919061476f565b610bde565b60405161031d91906145db565b60405180910390f35b34801561033257600080fd5b5061034d600480360381019061034891906147b8565b610cca565b60405161035a91906149f4565b60405180910390f35b34801561036f57600080fd5b50610378610e6a565b60405161038591906142a5565b60405180910390f35b34801561039a57600080fd5b506103b560048036038101906103b091906147b8565b610e74565b6040516103c291906142a5565b60405180910390f35b3480156103d757600080fd5b506103f260048036038101906103ed9190614a16565b610f19565b005b34801561040057600080fd5b5061041b6004803603810190610416919061476f565b6110d0565b60405161042891906145db565b60405180910390f35b34801561043d57600080fd5b506104466112c7565b60405161045391906149f4565b60405180910390f35b34801561046857600080fd5b5061047161145c565b60405161047e91906142a5565b60405180910390f35b34801561049357600080fd5b5061049c611466565b6040516104a99190614a94565b60405180910390f35b3480156104be57600080fd5b506104d960048036038101906104d49190614243565b611490565b6040516104e691906142a5565b60405180910390f35b3480156104fb57600080fd5b5061051660048036038101906105119190614aaf565b61161b565b60405161052391906142a5565b60405180910390f35b34801561053857600080fd5b50610553600480360381019061054e9190614b32565b6118ef565b005b34801561056157600080fd5b5061057c60048036038101906105779190614b72565b6119ca565b60405161058991906142a5565b60405180910390f35b34801561059e57600080fd5b506105b960048036038101906105b4919061476f565b611d0a565b6040516105c691906145db565b60405180910390f35b3480156105db57600080fd5b506105f660048036038101906105f191906147b8565b611f48565b6040516106039190614c90565b60405180910390f35b6000610618838361202e565b83341461065a576040517f08c379a000000000000000000000000000000000000000000000000000000000815260040161065190614d0f565b60405180910390fd5b6000600c54620f42408661066e9190614d5e565b6106789190614dcf565b9050600f60009054906101000a900473ffffffffffffffffffffffffffffffffffffffff1673ffffffffffffffffffffffffffffffffffffffff166340c10f196106c0612032565b836040518363ffffffff1660e01b81526004016106de929190614e00565b600060405180830381600087803b1580156106f857600080fd5b505af115801561070c573d6000803e3d6000fd5b5050505084600560008282546107229190614e29565b92505081905550610731612032565b73ffffffffffffffffffffffffffffffffffffffff167f90890809c654f11d6e72a28fa60149770a0d11ec6c92319d6ceb2bb0a4ea1a158683604051610778929190614e5d565b60405180910390a2809150509392505050565b6000600460009054906101000a900473ffffffffffffffffffffffffffffffffffffffff1673ffffffffffffffffffffffffffffffffffffffff163373ffffffffffffffffffffffffffffffffffffffff161461081d576040517f08c379a000000000000000000000000000000000000000000000000000000000815260040161081490614ed2565b60405180910390fd5b600073ffffffffffffffffffffffffffffffffffffffff166000866040516108459190614f2e565b908152602001604051809103902060009054906101000a900473ffffffffffffffffffffffffffffffffffffffff1673ffffffffffffffffffffffffffffffffffffffff160361092257836000866040516108a09190614f2e565b908152602001604051809103902060006101000a81548173ffffffffffffffffffffffffffffffffffffffff021916908373ffffffffffffffffffffffffffffffffffffffff1602179055506001859080600181540180825580915050600190039060005260206000200160009091909190915090816109209190615151565b505b60019050949350505050565b6000600460009054906101000a900473ffffffffffffffffffffffffffffffffffffffff1673ffffffffffffffffffffffffffffffffffffffff163373ffffffffffffffffffffffffffffffffffffffff16146109c0576040517f08c379a00000000000000000000000000000000000000000000000000000000081526004016109b790614ed2565b60405180910390fd5b8167ffffffffffffffff16600c81905550600c549050919050565b6000600c54905090565b6000600460009054906101000a900473ffffffffffffffffffffffffffffffffffffffff1673ffffffffffffffffffffffffffffffffffffffff163373ffffffffffffffffffffffffffffffffffffffff1614610a77576040517f08c379a0000000000000000000000000000000000000000000000000000000008152600401610a6e90614ed2565b60405180910390fd5b8167ffffffffffffffff16600b81905550600b549050919050565b6000600460009054906101000a900473ffffffffffffffffffffffffffffffffffffffff1673ffffffffffffffffffffffffffffffffffffffff163373ffffffffffffffffffffffffffffffffffffffff1614610b24576040517f08c379a0000000000000000000000000000000000000000000000000000000008152600401610b1b90614ed2565b60405180910390fd5b8167ffffffffffffffff16600d81905550600d549050919050565b610b47613fa2565b604051806101600160405280600854600754610b639190615223565b600954600554610b739190614e29565b610b7d9190615223565b81526020016005548152602001600081526020016009548152602001600854815260200160065481526020016006548152602001600e548152602001600c548152602001600d548152602001600a54815250905090565b6000600e54905090565b6000610bf1610beb612032565b8361203a565b600082604051610c019190614f2e565b908152602001604051809103902060006101000a81549073ffffffffffffffffffffffffffffffffffffffff021916905560005b600180549050811015610cc05782610c4c90615286565b60001c60018281548110610c6357610c626152ed565b5b90600052602060002001610c7690615376565b60001c03610cad5760018181548110610c9257610c916152ed565b5b906000526020600020016000610ca89190613ffc565b610cc0565b8080610cb8906153e7565b915050610c35565b5060019050919050565b6060610e636003805480602002602001604051908101604052809291908181526020016000905b82821015610e59578382906000526020600020906008020160405180610100016040529081600082015481526020016001820160009054906101000a900473ffffffffffffffffffffffffffffffffffffffff1673ffffffffffffffffffffffffffffffffffffffff1673ffffffffffffffffffffffffffffffffffffffff16815260200160028201548152602001600382018054610d8f90614f74565b80601f0160208091040260200160405190810160405280929190818152602001828054610dbb90614f74565b8015610e085780601f10610ddd57610100808354040283529160200191610e08565b820191906000526020600020905b815481529060010190602001808311610deb57829003601f168201915b505050505081526020016004820154815260200160058201548152602001600682015481526020016007820160009054906101000a900460ff16151515158152505081526020019060010190610cf1565b50505050836120ea565b9050919050565b6000600d54905090565b6000600f60009054906101000a900473ffffffffffffffffffffffffffffffffffffffff1673ffffffffffffffffffffffffffffffffffffffff166370a08231836040518263ffffffff1660e01b8152600401610ed19190614a94565b602060405180830381865afa158015610eee573d6000803e3d6000fd5b505050506040513d601f19601f82011682018060405250810190610f129190615444565b9050919050565b600460009054906101000a900473ffffffffffffffffffffffffffffffffffffffff1673ffffffffffffffffffffffffffffffffffffffff163373ffffffffffffffffffffffffffffffffffffffff1614610fa9576040517f08c379a0000000000000000000000000000000000000000000000000000000008152600401610fa090614ed2565b60405180910390fd5b6001830361100a576000610fbc8361228e565b90506110048360405180606001604052808460200151600001518152602001846020015160200151815260200184602001516040015167ffffffffffffffff16815250612331565b506110cb565b600283036110525761104c8260405180602001604052808460001b6040516020016110359190615492565b604051602081830303815290604052815250612364565b506110ca565b600383036110c9576000611065836123c4565b90506110c783604051806060016040528084600001518152602001604051806040016040528060405180604001604052806001815260200160008152508152602001600015158152508152602001600067ffffffffffffffff16815250612331565b505b5b5b505050565b60006110db82612467565b6110ec6110e6612032565b8361203a565b6002826040516110fc9190614f2e565b90815260200160405180910390206003015460028360405161111e9190614f2e565b90815260200160405180910390206002015414611170576040517f08c379a0000000000000000000000000000000000000000000000000000000008152600401611167906154f9565b60405180910390fd5b600061117b836123c4565b905060006111888461228e565b9050816000015161119890615286565b60001c8160000151600001516111ad90615286565b60001c146112165761121584604051806060016040528085600001518152602001604051806040016040528060405180604001604052806001815260200160008152508152602001600015158152508152602001600067ffffffffffffffff16815250612331565b5b6002846040516112269190614f2e565b9081526020016040518091039020600080820160006112459190613ffc565b6001820160009055600282016000905560038201600090556004820160006101000a81549067ffffffffffffffff021916905550507f02802f4b1b4130a3545c8a5871d4ccbb78ddd4a87284d4dd812fe49b9cc14ff48483600001516000806040516112b494939291906155cf565b60405180910390a1600192505050919050565b60606003805480602002602001604051908101604052809291908181526020016000905b82821015611453578382906000526020600020906008020160405180610100016040529081600082015481526020016001820160009054906101000a900473ffffffffffffffffffffffffffffffffffffffff1673ffffffffffffffffffffffffffffffffffffffff1673ffffffffffffffffffffffffffffffffffffffff1681526020016002820154815260200160038201805461138990614f74565b80601f01602080910402602001604051908101604052809291908181526020018280546113b590614f74565b80156114025780601f106113d757610100808354040283529160200191611402565b820191906000526020600020905b8154815290600101906020018083116113e557829003601f168201915b505050505081526020016004820154815260200160058201548152602001600682015481526020016007820160009054906101000a900460ff161515151581525050815260200190600101906112eb565b50505050905090565b6000600b54905090565b6000600f60009054906101000a900473ffffffffffffffffffffffffffffffffffffffff16905090565b600061149c838361202e565b600f60009054906101000a900473ffffffffffffffffffffffffffffffffffffffff1673ffffffffffffffffffffffffffffffffffffffff16639dc29fac6114e2612032565b866040518363ffffffff1660e01b8152600401611500929190614e00565b600060405180830381600087803b15801561151a57600080fd5b505af115801561152e573d6000803e3d6000fd5b505050506000620f4240600c54866115469190614d5e565b6115509190614dcf565b905061155a612032565b73ffffffffffffffffffffffffffffffffffffffff166108fc829081150290604051600060405180830381858888f1935050505015801561159f573d6000803e3d6000fd5b5080600660008282546115b29190614e29565b925050819055506115c1612032565b73ffffffffffffffffffffffffffffffffffffffff167fe5b754fb1abb7f01b499791d0b820ae3b6af3424ac1c59768edb53f4ec31a9298683604051611608929190614e5d565b60405180910390a2809150509392505050565b600061162685612467565b611637611631612032565b8661203a565b61164183836124ce565b6002856040516116519190614f2e565b9081526020016040518091039020600101546002866040516116739190614f2e565b908152602001604051809103902060020154856116909190614e29565b106116d0576040517f08c379a00000000000000000000000000000000000000000000000000000000081526004016116c79061566e565b60405180910390fd5b600360405180610100016040528060038054905081526020016116f1612032565b73ffffffffffffffffffffffffffffffffffffffff168152602001868152602001878152602001858152602001428152602001600081526020016000151581525090806001815401808255809150506001900390600052602060002090600802016000909190919091506000820151816000015560208201518160010160006101000a81548173ffffffffffffffffffffffffffffffffffffffff021916908373ffffffffffffffffffffffffffffffffffffffff1602179055506040820151816002015560608201518160030190816117cb9190615151565b506080820151816004015560a0820151816005015560c0820151816006015560e08201518160070160006101000a81548160ff02191690831515021790555050508360028660405161181d9190614f2e565b9081526020016040518091039020600201600082825461183d9190614e29565b9250508190555083600760008282546118569190614e29565b9250508190555061186785856124d2565b846040516118759190614f2e565b6040518091039020611885612032565b73ffffffffffffffffffffffffffffffffffffffff1660016003805490506118ad9190615223565b7ff663635428bb63bc7d97389593d8a285c64fbc7812c04cc414c05ce56cdcde82876040516118dc91906142a5565b60405180910390a4839050949350505050565b600460009054906101000a900473ffffffffffffffffffffffffffffffffffffffff1673ffffffffffffffffffffffffffffffffffffffff163373ffffffffffffffffffffffffffffffffffffffff161461197f576040517f08c379a000000000000000000000000000000000000000000000000000000000815260040161197690614ed2565b60405180910390fd5b8173ffffffffffffffffffffffffffffffffffffffff166108fc829081150290604051600060405180830381858888f193505050501580156119c5573d6000803e3d6000fd5b505050565b6000826119d690615286565b60001c600383815481106119ed576119ec6152ed565b5b9060005260206000209060080201600301611a0790615376565b60001c14611a4a576040517f08c379a0000000000000000000000000000000000000000000000000000000008152600401611a41906156da565b60405180910390fd5b6000151560038381548110611a6257611a616152ed565b5b906000526020600020906008020160070160009054906101000a900460ff16151514611ac3576040517f08c379a0000000000000000000000000000000000000000000000000000000008152600401611aba90615746565b60405180910390fd5b600080600d548260038681548110611ade57611add6152ed565b5b906000526020600020906008020160020154611afa9190614d5e565b611b049190614dcf565b905060008160038681548110611b1d57611b1c6152ed565b5b906000526020600020906008020160020154611b399190614e29565b9050611b758660405180602001604052808460001b604051602001611b5e9190615492565b604051602081830303815290604052815250612364565b5060038581548110611b8a57611b896152ed565b5b90600052602060002090600802016002015460086000828254611bad9190614e29565b925050819055508160096000828254611bc69190614e29565b925050819055504260038681548110611be257611be16152ed565b5b906000526020600020906008020160060181905550600160038681548110611c0d57611c0c6152ed565b5b906000526020600020906008020160070160006101000a81548160ff02191690831515021790555060038581548110611c4957611c486152ed565b5b906000526020600020906008020160020154600287604051611c6b9190614f2e565b90815260200160405180910390206003016000828254611c8b9190614e29565b9250508190555085604051611ca09190614f2e565b6040518091039020611cb0612032565b73ffffffffffffffffffffffffffffffffffffffff16867f09e2ab6ed0272b6af25991ef10a455c5fbe03b9d9ccc4647158fcc871c13254f84604051611cf691906142a5565b60405180910390a480935050505092915050565b6000611d1582612541565b611d26611d20612032565b8361203a565b6000611d318361228e565b90506000611d468260200151602001516125a8565b611d4f90615286565b60001c905060008111611d97576040517f08c379a0000000000000000000000000000000000000000000000000000000008152600401611d8e906157b2565b60405180910390fd5b4382602001516040015167ffffffffffffffff1611611deb576040517f08c379a0000000000000000000000000000000000000000000000000000000008152600401611de29061581e565b60405180910390fd5b611e318460405180606001604052808560200151600001518152602001856020015160200151815260200185602001516040015167ffffffffffffffff16815250612331565b6040518060a00160405280858152602001828152602001600081526020016000815260200183602001516040015167ffffffffffffffff16815250600285604051611e7c9190614f2e565b90815260200160405180910390206000820151816000019081611e9f9190615151565b5060208201518160010155604082015181600201556060820151816003015560808201518160040160006101000a81548167ffffffffffffffff021916908367ffffffffffffffff1602179055509050507f23e0a25675e5d66d51862680bb67e1865ad5f76c9badf7118ccd92a6e46e04718483602001516000015183856020015160400151604051611f35949392919061584d565b60405180910390a1600192505050919050565b606061202760006001805480602002602001604051908101604052809291908181526020016000905b8282101561201d578382906000526020600020018054611f9090614f74565b80601f0160208091040260200160405190810160405280929190818152602001828054611fbc90614f74565b80156120095780601f10611fde57610100808354040283529160200191612009565b820191906000526020600020905b815481529060010190602001808311611fec57829003601f168201915b505050505081526020019060010190611f71565b5050505084612705565b9050919050565b5050565b600033905090565b8173ffffffffffffffffffffffffffffffffffffffff166000826040516120619190614f2e565b908152602001604051809103902060009054906101000a900473ffffffffffffffffffffffffffffffffffffffff1673ffffffffffffffffffffffffffffffffffffffff16146120e6576040517f08c379a00000000000000000000000000000000000000000000000000000000081526004016120dd906158ec565b60405180910390fd5b5050565b6060600080600090505b8451811015612170578373ffffffffffffffffffffffffffffffffffffffff16858281518110612127576121266152ed565b5b60200260200101516020015173ffffffffffffffffffffffffffffffffffffffff160361215d578180612159906153e7565b9250505b8080612168906153e7565b9150506120f4565b5060008167ffffffffffffffff81111561218d5761218c6142db565b5b6040519080825280602002602001820160405280156121c657816020015b6121b361403c565b8152602001906001900390816121ab5790505b5090506000805b83811015612281578573ffffffffffffffffffffffffffffffffffffffff168782815181106121ff576121fe6152ed565b5b60200260200101516020015173ffffffffffffffffffffffffffffffffffffffff160361226e57868181518110612239576122386152ed565b5b6020026020010151838381518110612254576122536152ed565b5b6020026020010181905250818061226a906153e7565b9250505b8080612279906153e7565b9150506121cd565b5081935050505092915050565b612296614099565b60008067ffffffffffffffff8111156122b2576122b16142db565b5b6040519080825280601f01601f1916602001820160405280156122e45781602001600182028036833780820191505090505b50905060006122fb63f7e4e2998584600034612859565b9050600061230882612994565b9050612312614099565b6123258282612a8590919063ffffffff16565b80945050505050919050565b600061233c82612e86565b90506000612352635d9dfc2c8584607134612859565b905061235d81612994565b5050505050565b61236c6140bf565b600061237783612f08565b9050600061238d6387ed0a648684607134612859565b9050600061239a82612994565b90506123a46140bf565b6123b78282612f5490919063ffffffff16565b8094505050505092915050565b6123cc6140d2565b60008067ffffffffffffffff8111156123e8576123e76142db565b5b6040519080825280601f01601f19166020018201604052801561241a5781602001600182028036833780820191505090505b509050600061243163c33a1cc68584600034612859565b9050600061243e82612994565b90506124486140d2565b61245b8282612f7a90919063ffffffff16565b80945050505050919050565b60006002826040516124799190614f2e565b908152602001604051809103902060010154116124cb576040517f08c379a00000000000000000000000000000000000000000000000000000000081526004016124c290615958565b60405180910390fd5b50565b5050565b6000612530600084600067ffffffffffffffff8111156124f5576124f46142db565b5b6040519080825280601f01601f1916602001820160405280156125275781602001600182028036833780820191505090505b50600086612859565b905061253b81612994565b50505050565b60006002826040516125539190614f2e565b908152602001604051809103902060010154146125a5576040517f08c379a000000000000000000000000000000000000000000000000000000000815260040161259c906159c4565b60405180910390fd5b50565b6060600060018360000151516125be9190614e29565b67ffffffffffffffff8111156125d7576125d66142db565b5b6040519080825280601f01601f1916602001820160405280156126095781602001600182028036833780820191505090505b50905082602001511561265f57600160f81b8160008151811061262f5761262e6152ed565b5b60200101907effffffffffffffffffffffffffffffffffffffffffffffffffffffffffffff1916908160001a9053505b60006001905060005b8460000151518110156126fa578460000151818151811061268c5761268b6152ed565b5b602001015160f81c60f81b8383815181106126aa576126a96152ed565b5b60200101907effffffffffffffffffffffffffffffffffffffffffffffffffffffffffffff1916908160001a90535081806126e4906153e7565b92505080806126f2906153e7565b915050612668565b508192505050919050565b60606000835167ffffffffffffffff811115612724576127236142db565b5b60405190808252806020026020018201604052801561275757816020015b60608152602001906001900390816127425790505b5090506000805b855181101561284c578473ffffffffffffffffffffffffffffffffffffffff1687878381518110612792576127916152ed565b5b60200260200101516040516127a79190614f2e565b908152602001604051809103902060009054906101000a900473ffffffffffffffffffffffffffffffffffffffff1673ffffffffffffffffffffffffffffffffffffffff160361283957858181518110612804576128036152ed565b5b602002602001015183838151811061281f5761281e6152ed565b5b60200260200101819052508180612835906153e7565b9250505b8080612844906153e7565b91505061275e565b5081925050509392505050565b606060008073fe0000000000000000000000000000000000000373ffffffffffffffffffffffffffffffffffffffff1688856000888a8c6040516020016128a5969594939291906159e4565b6040516020818303038152906040526040516128c19190614f2e565b600060405180830381855af49150503d80600081146128fc576040519150601f19603f3d011682016040523d82523d6000602084013e612901565b606091505b509150915060011515821515146040518060400160405280601181526020017f6163746f722063616c6c206661696c656400000000000000000000000000000081525090612985576040517f08c379a000000000000000000000000000000000000000000000000000000000815260040161297c9190615a97565b60405180910390fd5b50809250505095945050505050565b60606000806000848060200190518101906129af9190615b74565b925092509250600067ffffffffffffffff168267ffffffffffffffff1614806129ec5750607167ffffffffffffffff168267ffffffffffffffff16145b612a2b576040517f08c379a0000000000000000000000000000000000000000000000000000000008152600401612a2290615c2f565b60405180910390fd5b60008314612a3884613005565b90612a79576040517f08c379a0000000000000000000000000000000000000000000000000000000008152600401612a709190615a97565b60405180910390fd5b50809350505050919050565b6060600080612a9d828561306f90919063ffffffff16565b809350819250505060028114612ab657612ab5615c4f565b5b612ac9828561306f90919063ffffffff16565b809350819250505060028114612ae257612ae1615c4f565b5b612af582856130be90919063ffffffff16565b86600001516000018194508290525050612b18828561306f90919063ffffffff16565b809350819250505060038114612b3157612b30615c4f565b5b612b4482856130be90919063ffffffff16565b8093508194505050600083511115612b7457612b5f83613268565b85600001516020015160000181905250612bea565b6040518060400160405280600067ffffffffffffffff811115612b9a57612b996142db565b5b6040519080825280601f01601f191660200182016040528015612bcc5781602001600182028036833780820191505090505b50815260200160001515815250856000015160200151600001819052505b612bfd82856130be90919063ffffffff16565b8093508194505050600083511115612c2d57612c1883613268565b85600001516020015160200181905250612ca3565b6040518060400160405280600067ffffffffffffffff811115612c5357612c526142db565b5b6040519080825280601f01601f191660200182016040528015612c855781602001600182028036833780820191505090505b50815260200160001515815250856000015160200151602001819052505b612cb6828561340f90919063ffffffff16565b8660000151602001516040018194508267ffffffffffffffff1667ffffffffffffffff168152505050612cf2828561345e90919063ffffffff16565b612e7f57612d09828561306f90919063ffffffff16565b809350819250505060058114612d2257612d21615c4f565b5b612d3582856130be90919063ffffffff16565b86602001516000018194508290525050612d5882856130be90919063ffffffff16565b8093508194505050600083511115612d8457612d7383613268565b856020015160200181905250612df6565b6040518060400160405280600067ffffffffffffffff811115612daa57612da96142db565b5b6040519080825280601f01601f191660200182016040528015612ddc5781602001600182028036833780820191505090505b508152602001600015158152508560200151602001819052505b612e09828561340f90919063ffffffff16565b86602001516040018194508267ffffffffffffffff1667ffffffffffffffff168152505050612e4182856134ca90919063ffffffff16565b866020015160600181945082151515158152505050612e6982856134ca90919063ffffffff16565b8660200151608001819450821515151581525050505b5050505050565b60606000612e946040613542565b9050612eaa60038261356990919063ffffffff16565b612ec183600001518261357990919063ffffffff16565b612ee0612ed184602001516125a8565b8261357990919063ffffffff16565b612ef78360400151826135a290919063ffffffff16565b612f00816135b2565b915050919050565b60606000612f166040613542565b9050612f2c60018261356990919063ffffffff16565b612f4383600001518261357990919063ffffffff16565b612f4c816135b2565b915050919050565b6000612f6981836130be90919063ffffffff16565b846000018193508290525050505050565b600080612f90828461306f90919063ffffffff16565b809350819250505060028114612fa957612fa8615c4f565b5b612fbc82846130be90919063ffffffff16565b856000018194508290525050612fdb828461345e90919063ffffffff16565b612fff57612ff282846130be90919063ffffffff16565b8560200181945082905250505b50505050565b6060600082121561303f576130198261360b565b6040516020016130299190615ce0565b604051602081830303815290604052905061306a565b6130488261360b565b6040516020016130589190615ce0565b60405160208183030381529060405290505b919050565b60008060008061307f86866136d9565b8167ffffffffffffffff169150809750819350829450505050600460ff168260ff16146130af576130ae615c4f565b5b80859350935050509250929050565b606060008060006130cf86866136d9565b8167ffffffffffffffff169150809750819350829450505050600660ff168260ff1614806131035750600260ff168260ff16145b6131105761310f615c4f565b5b600660ff168260ff16036131595761312886866136d9565b8167ffffffffffffffff169150809750819350829450505050600260ff168260ff161461315857613157615c4f565b5b5b600081866131679190614e29565b905060008267ffffffffffffffff811115613185576131846142db565b5b6040519080825280601f01601f1916602001820160405280156131b75781602001600182028036833780820191505090505b5090506000808890505b8381101561324a578981815181106131dc576131db6152ed565b5b602001015160f81c60f81b8383815181106131fa576131f96152ed565b5b60200101907effffffffffffffffffffffffffffffffffffffffffffffffffffffffffffff1916908160001a9053508180613234906153e7565b9250508080613242906153e7565b9150506131c1565b508184896132589190614e29565b9650965050505050509250929050565b6132706140ec565b60008251036132ae5760405180604001604052806040518060400160405280600181526020016000815250815260200160001515815250905061340a565b6000600183516132be9190615223565b67ffffffffffffffff8111156132d7576132d66142db565b5b6040519080825280601f01601f1916602001820160405280156133095781602001600182028036833780820191505090505b5090506000600160f81b84600081518110613327576133266152ed565b5b602001015160f81c60f81b7effffffffffffffffffffffffffffffffffffffffffffffffffffffffffffff19160361335e57600190505b6000600190505b84518110156133ed57848181518110613381576133806152ed565b5b602001015160f81c60f81b8360018361339a9190615223565b815181106133ab576133aa6152ed565b5b60200101907effffffffffffffffffffffffffffffffffffffffffffffffffffffffffffff1916908160001a90535080806133e5906153e7565b915050613365565b506040518060400160405280838152602001821515815250925050505b919050565b60008060008061341f86866136d9565b8167ffffffffffffffff169150809750819350829450505050600060ff168260ff161461344f5761344e615c4f565b5b80859350935050509250929050565b60007ff600000000000000000000000000000000000000000000000000000000000000838381518110613494576134936152ed565b5b602001015160f81c60f81b7effffffffffffffffffffffffffffffffffffffffffffffffffffffffffffff191614905092915050565b6000806000806134da86866136d9565b8167ffffffffffffffff169150809750819350829450505050600760ff168260ff161461350a57613509615c4f565b5b601560ff1681148061351f5750601460ff1681145b61352c5761352b615c4f565b5b601460ff16811415859350935050509250929050565b61354a614108565b613558816000015183613867565b506000816020018181525050919050565b613575826004836138e0565b5050565b61358682600283516138f0565b61359d818360000151613a9990919063ffffffff16565b505050565b6135ae826000836138f0565b5050565b606060008260200151146135fb576040517f08c379a00000000000000000000000000000000000000000000000000000000081526004016135f290615d52565b60405180910390fd5b8160000151600001519050919050565b60606000600161361a84613ab5565b01905060008167ffffffffffffffff811115613639576136386142db565b5b6040519080825280601f01601f19166020018201604052801561366b5781602001600182028036833780820191505090505b509050600082602001820190505b6001156136ce578080600190039150507f3031323334353637383961626364656600000000000000000000000000000000600a86061a8153600a85816136c2576136c1614da0565b5b04945060008503613679575b819350505050919050565b6000806000806136e98686613c08565b90506001856136f89190614e29565b94506000600560e0831660ff16901c90506000601f83169050601c8160ff161061372557613724615c4f565b5b60188160ff161015613748578181888160ff169150955095509550505050613860565b60188160ff160361379d57600061375f8989613c08565b905060018861376e9190614e29565b975060188160ff16101561378557613784615c4f565b5b8281898160ff16915096509650965050505050613860565b60198160ff16036137de5760006137b48989613c6f565b90506002886137c39190614e29565b97508281898161ffff16915096509650965050505050613860565b601a8160ff16036138215760006137f58989613cd6565b90506004886138049190614e29565b97508281898163ffffffff16915096509650965050505050613860565b601b8160ff161461383557613834615c4f565b5b60006138418989613d3d565b90506008886138509190614e29565b9750828189965096509650505050505b9250925092565b61386f614128565b600060208361387e9190615d72565b146138aa576020826138909190615d72565b602061389c9190615223565b826138a79190614e29565b91505b8183602001818152505060405180845260008152828101602001818110156138d157600080fd5b80604052505082905092915050565b6138eb8383836138f0565b505050565b60178167ffffffffffffffff161161392b576139258160058460ff16901b60ff16178460000151613da490919063ffffffff16565b50613a94565b60ff8167ffffffffffffffff16116139895761395e601860058460ff16901b178460000151613da490919063ffffffff16565b506139838167ffffffffffffffff1660018560000151613e0e9092919063ffffffff16565b50613a93565b61ffff8167ffffffffffffffff16116139e8576139bd601960058460ff16901b178460000151613da490919063ffffffff16565b506139e28167ffffffffffffffff1660028560000151613e0e9092919063ffffffff16565b50613a92565b63ffffffff8167ffffffffffffffff1611613a4957613a1e601a60058460ff16901b178460000151613da490919063ffffffff16565b50613a438167ffffffffffffffff1660048560000151613e0e9092919063ffffffff16565b50613a91565b613a6a601b60058460ff16901b178460000151613da490919063ffffffff16565b50613a8f8167ffffffffffffffff1660088560000151613e0e9092919063ffffffff16565b505b5b5b5b505050565b613aa1614128565b613aad83838451613e9b565b905092915050565b600080600090507a184f03e93ff9f4daa797ed6e38ed64bf6a1f0100000000000000008310613b13577a184f03e93ff9f4daa797ed6e38ed64bf6a1f0100000000000000008381613b0957613b08614da0565b5b0492506040810190505b6d04ee2d6d415b85acef81000000008310613b50576d04ee2d6d415b85acef81000000008381613b4657613b45614da0565b5b0492506020810190505b662386f26fc100008310613b7f57662386f26fc100008381613b7557613b74614da0565b5b0492506010810190505b6305f5e1008310613ba8576305f5e1008381613b9e57613b9d614da0565b5b0492506008810190505b6127108310613bcd576127108381613bc357613bc2614da0565b5b0492506004810190505b60648310613bf05760648381613be657613be5614da0565b5b0492506002810190505b600a8310613bff576001810190505b80915050919050565b6000600182613c179190614e29565b83511015613c5a576040517f08c379a0000000000000000000000000000000000000000000000000000000008152600401613c5190615def565b60405180910390fd5b60008260010184015190508091505092915050565b6000600282613c7e9190614e29565b83511015613cc1576040517f08c379a0000000000000000000000000000000000000000000000000000000008152600401613cb890615def565b60405180910390fd5b60008260020184015190508091505092915050565b6000600482613ce59190614e29565b83511015613d28576040517f08c379a0000000000000000000000000000000000000000000000000000000008152600401613d1f90615def565b60405180910390fd5b60008260040184015190508091505092915050565b6000600882613d4c9190614e29565b83511015613d8f576040517f08c379a0000000000000000000000000000000000000000000000000000000008152600401613d8690615def565b60405180910390fd5b60008260080184015190508091505092915050565b613dac614128565b600083600001515190506000600182613dc59190614e29565b905084602001518210613de957613de885600283613de39190614d5e565b613f7e565b5b84516020838201018581538151831115613e01578282525b5050849250505092915050565b613e16614128565b6000846000015151905060008184613e2e9190614e29565b90508560200151811115613e5357613e5286600283613e4d9190614d5e565b613f7e565b5b6000600185610100613e659190615f42565b613e6f9190615223565b905086518281018783198251161781528151841115613e8c578382525b50508693505050509392505050565b613ea3614128565b8251821115613eb157600080fd5b6000846000015151905060008382613ec99190614e29565b90508560200151811115613eee57613eed86600283613ee89190614d5e565b613f7e565b5b60008087518051856020830101935080851115613f09578482525b60208901925050505b60208610613f505780518252602082613f2b9190614e29565b9150602081613f3a9190614e29565b9050602086613f499190615223565b9550613f12565b60006001876020036101000a0390508019825116818451168181178552505050879450505050509392505050565b600082600001519050613f918383613867565b50613f9c8382613a99565b50505050565b60405180610160016040528060008152602001600081526020016000815260200160008152602001600081526020016000815260200160008152602001600081526020016000815260200160008152602001600081525090565b50805461400890614f74565b6000825580601f1061401a5750614039565b601f0160209004906000526020600020908101906140389190614142565b5b50565b60405180610100016040528060008152602001600073ffffffffffffffffffffffffffffffffffffffff16815260200160008152602001606081526020016000815260200160008152602001600081526020016000151581525090565b60405180604001604052806140ac61415f565b81526020016140b961417f565b81525090565b6040518060200160405280606081525090565b604051806040016040528060608152602001606081525090565b6040518060400160405280606081526020016000151581525090565b604051806040016040528061411b614128565b8152602001600081525090565b604051806040016040528060608152602001600081525090565b5b8082111561415b576000816000905550600101614143565b5090565b6040518060400160405280606081526020016141796141c2565b81525090565b6040518060a00160405280606081526020016141996140ec565b8152602001600067ffffffffffffffff1681526020016000151581526020016000151581525090565b60405180606001604052806141d56140ec565b81526020016141e26140ec565b8152602001600067ffffffffffffffff1681525090565b6000604051905090565b600080fd5b600080fd5b6000819050919050565b6142208161420d565b811461422b57600080fd5b50565b60008135905061423d81614217565b92915050565b60008060006060848603121561425c5761425b614203565b5b600061426a8682870161422e565b935050602061427b8682870161422e565b925050604061428c8682870161422e565b9150509250925092565b61429f8161420d565b82525050565b60006020820190506142ba6000830184614296565b92915050565b600080fd5b600080fd5b6000601f19601f8301169050919050565b7f4e487b7100000000000000000000000000000000000000000000000000000000600052604160045260246000fd5b614313826142ca565b810181811067ffffffffffffffff82111715614332576143316142db565b5b80604052505050565b60006143456141f9565b9050614351828261430a565b919050565b600067ffffffffffffffff821115614371576143706142db565b5b61437a826142ca565b9050602081019050919050565b82818337600083830152505050565b60006143a96143a484614356565b61433b565b9050828152602081018484840111156143c5576143c46142c5565b5b6143d0848285614387565b509392505050565b600082601f8301126143ed576143ec6142c0565b5b81356143fd848260208601614396565b91505092915050565b600073ffffffffffffffffffffffffffffffffffffffff82169050919050565b600061443182614406565b9050919050565b61444181614426565b811461444c57600080fd5b50565b60008135905061445e81614438565b92915050565b600067ffffffffffffffff82111561447f5761447e6142db565b5b614488826142ca565b9050602081019050919050565b60006144a86144a384614464565b61433b565b9050828152602081018484840111156144c4576144c36142c5565b5b6144cf848285614387565b509392505050565b600082601f8301126144ec576144eb6142c0565b5b81356144fc848260208601614495565b91505092915050565b6000806000806080858703121561451f5761451e614203565b5b600085013567ffffffffffffffff81111561453d5761453c614208565b5b614549878288016143d8565b945050602061455a8782880161444f565b935050604085013567ffffffffffffffff81111561457b5761457a614208565b5b614587878288016144d7565b925050606085013567ffffffffffffffff8111156145a8576145a7614208565b5b6145b4878288016143d8565b91505092959194509250565b60008115159050919050565b6145d5816145c0565b82525050565b60006020820190506145f060008301846145cc565b92915050565b600067ffffffffffffffff82169050919050565b614613816145f6565b811461461e57600080fd5b50565b6000813590506146308161460a565b92915050565b60006020828403121561464c5761464b614203565b5b600061465a84828501614621565b91505092915050565b61466c8161420d565b82525050565b610160820160008201516146896000850182614663565b50602082015161469c6020850182614663565b5060408201516146af6040850182614663565b5060608201516146c26060850182614663565b5060808201516146d56080850182614663565b5060a08201516146e860a0850182614663565b5060c08201516146fb60c0850182614663565b5060e082015161470e60e0850182614663565b50610100820151614723610100850182614663565b50610120820151614738610120850182614663565b5061014082015161474d610140850182614663565b50505050565b6000610160820190506147696000830184614672565b92915050565b60006020828403121561478557614784614203565b5b600082013567ffffffffffffffff8111156147a3576147a2614208565b5b6147af848285016143d8565b91505092915050565b6000602082840312156147ce576147cd614203565b5b60006147dc8482850161444f565b91505092915050565b600081519050919050565b600082825260208201905092915050565b6000819050602082019050919050565b61481a81614426565b82525050565b600081519050919050565b600082825260208201905092915050565b60005b8381101561485a57808201518184015260208101905061483f565b60008484015250505050565b600061487182614820565b61487b818561482b565b935061488b81856020860161483c565b614894816142ca565b840191505092915050565b6148a8816145c0565b82525050565b6000610100830160008301516148c76000860182614663565b5060208301516148da6020860182614811565b5060408301516148ed6040860182614663565b50606083015184820360608601526149058282614866565b915050608083015161491a6080860182614663565b5060a083015161492d60a0860182614663565b5060c083015161494060c0860182614663565b5060e083015161495360e086018261489f565b508091505092915050565b600061496a83836148ae565b905092915050565b6000602082019050919050565b600061498a826147e5565b61499481856147f0565b9350836020820285016149a685614801565b8060005b858110156149e257848403895281516149c3858261495e565b94506149ce83614972565b925060208a019950506001810190506149aa565b50829750879550505050505092915050565b60006020820190508181036000830152614a0e818461497f565b905092915050565b600080600060608486031215614a2f57614a2e614203565b5b6000614a3d8682870161422e565b935050602084013567ffffffffffffffff811115614a5e57614a5d614208565b5b614a6a868287016143d8565b9250506040614a7b8682870161422e565b9150509250925092565b614a8e81614426565b82525050565b6000602082019050614aa96000830184614a85565b92915050565b60008060008060808587031215614ac957614ac8614203565b5b600085013567ffffffffffffffff811115614ae757614ae6614208565b5b614af3878288016143d8565b9450506020614b048782880161422e565b9350506040614b158782880161422e565b9250506060614b268782880161422e565b91505092959194509250565b60008060408385031215614b4957614b48614203565b5b6000614b578582860161444f565b9250506020614b688582860161422e565b9150509250929050565b60008060408385031215614b8957614b88614203565b5b600083013567ffffffffffffffff811115614ba757614ba6614208565b5b614bb3858286016143d8565b9250506020614bc48582860161422e565b9150509250929050565b600081519050919050565b600082825260208201905092915050565b6000819050602082019050919050565b6000614c068383614866565b905092915050565b6000602082019050919050565b6000614c2682614bce565b614c308185614bd9565b935083602082028501614c4285614bea565b8060005b85811015614c7e5784840389528151614c5f8582614bfa565b9450614c6a83614c0e565b925060208a01995050600181019050614c46565b50829750879550505050505092915050565b60006020820190508181036000830152614caa8184614c1b565b905092915050565b600082825260208201905092915050565b7f76616c7565206e6f74206d617463680000000000000000000000000000000000600082015250565b6000614cf9600f83614cb2565b9150614d0482614cc3565b602082019050919050565b60006020820190508181036000830152614d2881614cec565b9050919050565b7f4e487b7100000000000000000000000000000000000000000000000000000000600052601160045260246000fd5b6000614d698261420d565b9150614d748361420d565b9250828202614d828161420d565b91508282048414831517614d9957614d98614d2f565b5b5092915050565b7f4e487b7100000000000000000000000000000000000000000000000000000000600052601260045260246000fd5b6000614dda8261420d565b9150614de58361420d565b925082614df557614df4614da0565b5b828204905092915050565b6000604082019050614e156000830185614a85565b614e226020830184614296565b9392505050565b6000614e348261420d565b9150614e3f8361420d565b9250828201905080821115614e5757614e56614d2f565b5b92915050565b6000604082019050614e726000830185614296565b614e7f6020830184614296565b9392505050565b7f756e617574686f72697a65640000000000000000000000000000000000000000600082015250565b6000614ebc600c83614cb2565b9150614ec782614e86565b602082019050919050565b60006020820190508181036000830152614eeb81614eaf565b9050919050565b600081905092915050565b6000614f0882614820565b614f128185614ef2565b9350614f2281856020860161483c565b80840191505092915050565b6000614f3a8284614efd565b915081905092915050565b7f4e487b7100000000000000000000000000000000000000000000000000000000600052602260045260246000fd5b60006002820490506001821680614f8c57607f821691505b602082108103614f9f57614f9e614f45565b5b50919050565b60008190508160005260206000209050919050565b60006020601f8301049050919050565b600082821b905092915050565b6000600883026150077fffffffffffffffffffffffffffffffffffffffffffffffffffffffffffffffff82614fca565b6150118683614fca565b95508019841693508086168417925050509392505050565b6000819050919050565b600061504e6150496150448461420d565b615029565b61420d565b9050919050565b6000819050919050565b61506883615033565b61507c61507482615055565b848454614fd7565b825550505050565b600090565b615091615084565b61509c81848461505f565b505050565b5b818110156150c0576150b5600082615089565b6001810190506150a2565b5050565b601f821115615105576150d681614fa5565b6150df84614fba565b810160208510156150ee578190505b6151026150fa85614fba565b8301826150a1565b50505b505050565b600082821c905092915050565b60006151286000198460080261510a565b1980831691505092915050565b60006151418383615117565b9150826002028217905092915050565b61515a82614820565b67ffffffffffffffff811115615173576151726142db565b5b61517d8254614f74565b6151888282856150c4565b600060209050601f8311600181146151bb57600084156151a9578287015190505b6151b38582615135565b86555061521b565b601f1984166151c986614fa5565b60005b828110156151f1578489015182556001820191506020850194506020810190506151cc565b8683101561520e578489015161520a601f891682615117565b8355505b6001600288020188555050505b505050505050565b600061522e8261420d565b91506152398361420d565b925082820390508181111561525157615250614d2f565b5b92915050565b6000819050602082019050919050565b6000819050919050565b600061527d8251615267565b80915050919050565b600061529182614820565b8261529b84615257565b90506152a681615271565b925060208210156152e6576152e17fffffffffffffffffffffffffffffffffffffffffffffffffffffffffffffffff83602003600802614fca565b831692505b5050919050565b7f4e487b7100000000000000000000000000000000000000000000000000000000600052603260045260246000fd5b60008154905061532b81614f74565b9050919050565b60008160001c9050919050565b6000819050919050565b600061535c61535783615332565b61533f565b9050919050565b600061536f8254615349565b9050919050565b60006153818261531c565b82601f8211156153975761539484614fa5565b90505b6153a081615363565b925060208210156153e0576153db7fffffffffffffffffffffffffffffffffffffffffffffffffffffffffffffffff83602003600802614fca565b831692505b5050919050565b60006153f28261420d565b91507fffffffffffffffffffffffffffffffffffffffffffffffffffffffffffffffff820361542457615423614d2f565b5b600182019050919050565b60008151905061543e81614217565b92915050565b60006020828403121561545a57615459614203565b5b60006154688482850161542f565b91505092915050565b6000819050919050565b61548c61548782615267565b615471565b82525050565b600061549e828461547b565b60208201915081905092915050565b7f7061796261636b20666972737420000000000000000000000000000000000000600082015250565b60006154e3600e83614cb2565b91506154ee826154ad565b602082019050919050565b60006020820190508181036000830152615512816154d6565b9050919050565b600082825260208201905092915050565b600061553582614820565b61553f8185615519565b935061554f81856020860161483c565b615558816142ca565b840191505092915050565b6000819050919050565b600061558861558361557e84615563565b615029565b61420d565b9050919050565b6155988161556d565b82525050565b60006155b96155b46155af84615563565b615029565b6145f6565b9050919050565b6155c98161559e565b82525050565b600060808201905081810360008301526155e9818761552a565b905081810360208301526155fd818661552a565b905061560c604083018561558f565b61561960608301846155c0565b95945050505050565b7f6e6f7420656e6f75676820746f20626f726f7700000000000000000000000000600082015250565b6000615658601383614cb2565b915061566382615622565b602082019050919050565b600060208201905081810360008301526156878161564b565b9050919050565b7f61646472206e6f74206d61746368000000000000000000000000000000000000600082015250565b60006156c4600e83614cb2565b91506156cf8261568e565b602082019050919050565b600060208201905081810360008301526156f3816156b7565b9050919050565b7f6e6f206e656564207061796261636b0000000000000000000000000000000000600082015250565b6000615730600f83614cb2565b915061573b826156fa565b602082019050919050565b6000602082019050818103600083015261575f81615723565b9050919050565b7f6e6565642071756f7461203e2030000000000000000000000000000000000000600082015250565b600061579c600e83614cb2565b91506157a782615766565b602082019050919050565b600060208201905081810360008301526157cb8161578f565b9050919050565b7f65787069726174696f6e20696e76616c69640000000000000000000000000000600082015250565b6000615808601283614cb2565b9150615813826157d2565b602082019050919050565b60006020820190508181036000830152615837816157fb565b9050919050565b615847816145f6565b82525050565b60006080820190508181036000830152615867818761552a565b9050818103602083015261587b818661552a565b905061588a6040830185614296565b615897606083018461583e565b95945050505050565b7f6e6f742062696e64000000000000000000000000000000000000000000000000600082015250565b60006158d6600883614cb2565b91506158e1826158a0565b602082019050919050565b60006020820190508181036000830152615905816158c9565b9050919050565b7f7374616b696e6720666972737400000000000000000000000000000000000000600082015250565b6000615942600d83614cb2565b915061594d8261590c565b602082019050919050565b6000602082019050818103600083015261597181615935565b9050919050565b7f756e7374616b696e672066697273740000000000000000000000000000000000600082015250565b60006159ae600f83614cb2565b91506159b982615978565b602082019050919050565b600060208201905081810360008301526159dd816159a1565b9050919050565b600060c0820190506159f9600083018961583e565b615a066020830188614296565b615a13604083018761583e565b615a20606083018661583e565b8181036080830152615a32818561552a565b905081810360a0830152615a46818461552a565b9050979650505050505050565b600081519050919050565b6000615a6982615a53565b615a738185614cb2565b9350615a8381856020860161483c565b615a8c816142ca565b840191505092915050565b60006020820190508181036000830152615ab18184615a5e565b905092915050565b6000819050919050565b615acc81615ab9565b8114615ad757600080fd5b50565b600081519050615ae981615ac3565b92915050565b600081519050615afe8161460a565b92915050565b6000615b17615b1284614356565b61433b565b905082815260208101848484011115615b3357615b326142c5565b5b615b3e84828561483c565b509392505050565b600082601f830112615b5b57615b5a6142c0565b5b8151615b6b848260208601615b04565b91505092915050565b600080600060608486031215615b8d57615b8c614203565b5b6000615b9b86828701615ada565b9350506020615bac86828701615aef565b925050604084015167ffffffffffffffff811115615bcd57615bcc614208565b5b615bd986828701615b46565b9150509250925092565b7f726573706f6e736520636f646563206e6f7420737570706f7274656400000000600082015250565b6000615c19601c83614cb2565b9150615c2482615be3565b602082019050919050565b60006020820190508181036000830152615c4881615c0c565b9050919050565b7f4e487b7100000000000000000000000000000000000000000000000000000000600052600160045260246000fd5b7f6163746f72206572726f7220636f6465202d0000000000000000000000000000815250565b600081905092915050565b6000615cba82615a53565b615cc48185615ca4565b9350615cd481856020860161483c565b80840191505092915050565b6000615ceb82615c7e565b601282019150615cfb8284615caf565b915081905092915050565b7f496e76616c69642043424f520000000000000000000000000000000000000000600082015250565b6000615d3c600c83614cb2565b9150615d4782615d06565b602082019050919050565b60006020820190508181036000830152615d6b81615d2f565b9050919050565b6000615d7d8261420d565b9150615d888361420d565b925082615d9857615d97614da0565b5b828206905092915050565b7f736c6963696e67206f7574206f662072616e6765000000000000000000000000600082015250565b6000615dd9601483614cb2565b9150615de482615da3565b602082019050919050565b60006020820190508181036000830152615e0881615dcc565b9050919050565b60008160011c9050919050565b6000808291508390505b6001851115615e6657808604811115615e4257615e41614d2f565b5b6001851615615e515780820291505b8081029050615e5f85615e0f565b9450615e26565b94509492505050565b600082615e7f5760019050615f3b565b81615e8d5760009050615f3b565b8160018114615ea35760028114615ead57615edc565b6001915050615f3b565b60ff841115615ebf57615ebe614d2f565b5b8360020a915084821115615ed657615ed5614d2f565b5b50615f3b565b5060208310610133831016604e8410600b8410161715615f115782820a905083811115615f0c57615f0b614d2f565b5b615f3b565b615f1e8484846001615e1c565b92509050818404811115615f3557615f34614d2f565b5b81810290505b9392505050565b6000615f4d8261420d565b9150615f588361420d565b9250615f857fffffffffffffffffffffffffffffffffffffffffffffffffffffffffffffffff8484615e6f565b90509291505056fea2646970667358221220c2c469d189556cfbb8ec28c7722deafeb77723f3714c01de7067e4b332d045aa64736f6c63430008110033",
  "linkReferences": {},
  "deployedLinkReferences": {}
}