{
  "_format": "hh-sol-artifact-1",
  "contractName": "FILL",
  "sourceName": "contracts/FILL.sol",
  "abi": [
    {
      "inputs": [
        {
          "internalType": "address",
          "name": "fleAddr",
          "type": "address"
        }
      ],
      "stateMutability": "nonpayable",
      "type": "constructor"
    },
    {
      "anonymous": false,
      "inputs": [
        {
          "indexed": true,
          "internalType": "bytes",
          "name": "minerId",
          "type": "bytes"
        },
        {
          "indexed": false,
          "internalType": "uint256",
          "name": "amount",
          "type": "uint256"
        }
      ],
      "name": "Borrow",
      "type": "event"
    },
    {
      "anonymous": false,
      "inputs": [
        {
          "indexed": true,
          "internalType": "address",
          "name": "addr",
          "type": "address"
        },
        {
          "indexed": false,
          "internalType": "uint256",
          "name": "amount",
          "type": "uint256"
        }
      ],
      "name": "Deposit",
      "type": "event"
    },
    {
      "anonymous": false,
      "inputs": [
        {
          "indexed": true,
          "internalType": "bytes",
          "name": "minerId",
          "type": "bytes"
        },
        {
          "indexed": false,
          "internalType": "uint256",
          "name": "amount",
          "type": "uint256"
        }
      ],
      "name": "Payback",
      "type": "event"
    },
    {
      "anonymous": false,
      "inputs": [
        {
          "indexed": true,
          "internalType": "address",
          "name": "addr",
          "type": "address"
        },
        {
          "indexed": false,
          "internalType": "uint256",
          "name": "amount",
          "type": "uint256"
        }
      ],
      "name": "Withdraw",
      "type": "event"
    },
    {
      "inputs": [],
      "name": "allBorrows",
      "outputs": [
        {
          "components": [
            {
              "internalType": "address",
              "name": "account",
              "type": "address"
            },
            {
              "internalType": "uint256",
              "name": "amount",
              "type": "uint256"
            },
            {
              "internalType": "bytes",
              "name": "minerAddr",
              "type": "bytes"
            },
            {
              "components": [
                {
                  "internalType": "bytes",
                  "name": "val",
                  "type": "bytes"
                },
                {
                  "internalType": "bool",
                  "name": "neg",
                  "type": "bool"
                }
              ],
              "internalType": "struct BigInt",
              "name": "quota",
              "type": "tuple"
            },
            {
              "internalType": "uint64",
              "name": "expiration",
              "type": "uint64"
            }
          ],
          "internalType": "struct FILLInterface.BorrowInfo[]",
          "name": "",
          "type": "tuple[]"
        }
      ],
      "stateMutability": "view",
      "type": "function"
    },
    {
      "inputs": [
        {
          "internalType": "bytes",
          "name": "minerAddress",
          "type": "bytes"
        },
        {
          "internalType": "uint256",
          "name": "amount",
          "type": "uint256"
        }
      ],
      "name": "borrow",
      "outputs": [
        {
          "internalType": "uint256",
          "name": "",
          "type": "uint256"
        }
      ],
      "stateMutability": "nonpayable",
      "type": "function"
    },
    {
      "inputs": [
        {
          "internalType": "bytes",
          "name": "",
          "type": "bytes"
        }
      ],
      "name": "borrows",
      "outputs": [
        {
          "internalType": "address",
          "name": "account",
          "type": "address"
        },
        {
          "internalType": "uint256",
          "name": "amount",
          "type": "uint256"
        },
        {
          "internalType": "bytes",
          "name": "minerAddr",
          "type": "bytes"
        },
        {
          "components": [
            {
              "internalType": "bytes",
              "name": "val",
              "type": "bytes"
            },
            {
              "internalType": "bool",
              "name": "neg",
              "type": "bool"
            }
          ],
          "internalType": "struct BigInt",
          "name": "quota",
          "type": "tuple"
        },
        {
          "internalType": "uint64",
          "name": "expiration",
          "type": "uint64"
        }
      ],
      "stateMutability": "view",
      "type": "function"
    },
    {
      "inputs": [
        {
          "internalType": "uint256",
          "name": "amount",
          "type": "uint256"
        }
      ],
      "name": "deposit",
      "outputs": [
        {
          "internalType": "uint256",
          "name": "",
          "type": "uint256"
        }
      ],
      "stateMutability": "payable",
      "type": "function"
    },
    {
      "inputs": [],
      "name": "depositsBalance",
      "outputs": [
        {
          "internalType": "uint256",
          "name": "",
          "type": "uint256"
        }
      ],
      "stateMutability": "view",
      "type": "function"
    },
    {
      "inputs": [],
      "name": "exchangeRate",
      "outputs": [
        {
          "internalType": "uint256",
          "name": "",
          "type": "uint256"
        }
      ],
      "stateMutability": "view",
      "type": "function"
    },
    {
      "inputs": [],
      "name": "feeRate",
      "outputs": [
        {
          "internalType": "uint256",
          "name": "",
          "type": "uint256"
        }
      ],
      "stateMutability": "view",
      "type": "function"
    },
    {
      "inputs": [],
      "name": "fleAddress",
      "outputs": [
        {
          "internalType": "address",
          "name": "",
          "type": "address"
        }
      ],
      "stateMutability": "view",
      "type": "function"
    },
    {
      "inputs": [
        {
          "internalType": "address",
          "name": "account",
          "type": "address"
        }
      ],
      "name": "fleBalanceOf",
      "outputs": [
        {
          "internalType": "uint256",
          "name": "",
          "type": "uint256"
        }
      ],
      "stateMutability": "view",
      "type": "function"
    },
    {
      "inputs": [],
      "name": "interestRate",
      "outputs": [
        {
          "internalType": "uint256",
          "name": "",
          "type": "uint256"
        }
      ],
      "stateMutability": "view",
      "type": "function"
    },
    {
      "inputs": [
        {
          "internalType": "bytes",
          "name": "minerAddr",
          "type": "bytes"
        }
      ],
      "name": "minerBorrow",
      "outputs": [
        {
          "components": [
            {
              "internalType": "address",
              "name": "account",
              "type": "address"
            },
            {
              "internalType": "uint256",
              "name": "amount",
              "type": "uint256"
            },
            {
              "internalType": "bytes",
              "name": "minerAddr",
              "type": "bytes"
            },
            {
              "components": [
                {
                  "internalType": "bytes",
                  "name": "val",
                  "type": "bytes"
                },
                {
                  "internalType": "bool",
                  "name": "neg",
                  "type": "bool"
                }
              ],
              "internalType": "struct BigInt",
              "name": "quota",
              "type": "tuple"
            },
            {
              "internalType": "uint64",
              "name": "expiration",
              "type": "uint64"
            }
          ],
          "internalType": "struct FILLInterface.BorrowInfo",
          "name": "",
          "type": "tuple"
        }
      ],
      "stateMutability": "view",
      "type": "function"
    },
    {
      "inputs": [
        {
          "internalType": "bytes",
          "name": "minerAddress",
          "type": "bytes"
        },
        {
          "internalType": "uint256",
          "name": "amount",
          "type": "uint256"
        }
      ],
      "name": "payback",
      "outputs": [
        {
          "internalType": "bool",
          "name": "",
          "type": "bool"
        }
      ],
      "stateMutability": "nonpayable",
      "type": "function"
    },
    {
      "inputs": [
        {
          "internalType": "uint64",
          "name": "newRate",
          "type": "uint64"
        }
      ],
      "name": "setExchangeRate",
      "outputs": [
        {
          "internalType": "uint256",
          "name": "",
          "type": "uint256"
        }
      ],
      "stateMutability": "nonpayable",
      "type": "function"
    },
    {
      "inputs": [
        {
          "internalType": "uint64",
          "name": "newRate",
          "type": "uint64"
        }
      ],
      "name": "setFeeRate",
      "outputs": [
        {
          "internalType": "uint256",
          "name": "",
          "type": "uint256"
        }
      ],
      "stateMutability": "nonpayable",
      "type": "function"
    },
    {
      "inputs": [],
      "name": "utilizationRate",
      "outputs": [
        {
          "internalType": "uint256",
          "name": "",
          "type": "uint256"
        }
      ],
      "stateMutability": "view",
      "type": "function"
    },
    {
      "inputs": [
        {
          "internalType": "uint256",
          "name": "amount",
          "type": "uint256"
        }
      ],
      "name": "withdraw",
      "outputs": [
        {
          "internalType": "uint256",
          "name": "",
          "type": "uint256"
        }
      ],
      "stateMutability": "nonpayable",
      "type": "function"
    }
  ],
  "bytecode": "0x60806040523480156200001157600080fd5b5060405162003a0538038062003a05833981810160405281019062000037919062000152565b80600b60006101000a81548173ffffffffffffffffffffffffffffffffffffffff021916908373ffffffffffffffffffffffffffffffffffffffff16021790555062000088620000e060201b60201c565b600360006101000a81548173ffffffffffffffffffffffffffffffffffffffff021916908373ffffffffffffffffffffffffffffffffffffffff1602179055506103e860078190555060016008819055505062000184565b600033905090565b600080fd5b600073ffffffffffffffffffffffffffffffffffffffff82169050919050565b60006200011a82620000ed565b9050919050565b6200012c816200010d565b81146200013857600080fd5b50565b6000815190506200014c8162000121565b92915050565b6000602082840312156200016b576200016a620000e8565b5b60006200017b848285016200013b565b91505092915050565b61387180620001946000396000f3fe6080604052600436106100f35760003560e01c806388f9c63c1161008a578063ad0e14e411610059578063ad0e14e414610356578063b6b55f2514610397578063ddeb186c146103c7578063e88436b714610404576100f3565b806388f9c63c14610298578063946e5375146102d5578063978bbdb914610300578063a22667d41461032b576100f3565b80633ba0b9a9116100c65780633ba0b9a9146101da578063459770f6146102055780636c321c8a146102425780637c3a00fd1461026d576100f3565b80630fcdc3f6146100f8578063138fbe71146101355780632010caac146101605780632e1a7d4d1461019d575b600080fd5b34801561010457600080fd5b5061011f600480360381019061011a9190612690565b610441565b60405161012c91906126fb565b60405180910390f35b34801561014157600080fd5b5061014a61056c565b60405161015791906126fb565b60405180910390f35b34801561016c57600080fd5b5061018760048036038101906101829190612756565b610574565b60405161019491906126fb565b60405180910390f35b3480156101a957600080fd5b506101c460048036038101906101bf9190612783565b610621565b6040516101d191906126fb565b60405180910390f35b3480156101e657600080fd5b506101ef61081f565b6040516101fc91906126fb565b60405180910390f35b34801561021157600080fd5b5061022c60048036038101906102279190612756565b610829565b60405161023991906126fb565b60405180910390f35b34801561024e57600080fd5b506102576108d6565b60405161026491906126fb565b60405180910390f35b34801561027957600080fd5b506102826108e0565b60405161028f91906126fb565b60405180910390f35b3480156102a457600080fd5b506102bf60048036038101906102ba919061280e565b6108ea565b6040516102cc91906126fb565b60405180910390f35b3480156102e157600080fd5b506102ea61098f565b6040516102f79190612a7e565b60405180910390f35b34801561030c57600080fd5b50610315610c53565b60405161032291906126fb565b60405180910390f35b34801561033757600080fd5b50610340610c5d565b60405161034d9190612aaf565b60405180910390f35b34801561036257600080fd5b5061037d60048036038101906103789190612aca565b610c87565b60405161038e959493929190612ba9565b60405180910390f35b6103b160048036038101906103ac9190612783565b610e46565b6040516103be91906126fb565b60405180910390f35b3480156103d357600080fd5b506103ee60048036038101906103e99190612aca565b61104c565b6040516103fb9190612c87565b60405180910390f35b34801561041057600080fd5b5061042b60048036038101906104269190612690565b611269565b6040516104389190612cb8565b60405180910390f35b600082600080826040516104559190612d0f565b908152602001604051809103902060010154146104a7576040517f08c379a000000000000000000000000000000000000000000000000000000000815260040161049e90612d83565b60405180910390fd5b600083116104ea576040517f08c379a00000000000000000000000000000000000000000000000000000000081526004016104e190612def565b60405180910390fd5b6104f4848461140c565b836040516105029190612d0f565b60405180910390207f8056e0d22a6076f9060095c7981b00ea2e65948913001d941529749a0ba345e78460405161053991906126fb565b60405180910390a26000846040516105519190612d0f565b90815260200160405180910390206001015491505092915050565b600047905090565b6000600360009054906101000a900473ffffffffffffffffffffffffffffffffffffffff1673ffffffffffffffffffffffffffffffffffffffff163373ffffffffffffffffffffffffffffffffffffffff1614610606576040517f08c379a00000000000000000000000000000000000000000000000000000000081526004016105fd90612e5b565b60405180910390fd5b8167ffffffffffffffff166008819055506008549050919050565b6000600b60009054906101000a900473ffffffffffffffffffffffffffffffffffffffff1673ffffffffffffffffffffffffffffffffffffffff16639dc29fac61066961147b565b846040518363ffffffff1660e01b8152600401610687929190612e7b565b600060405180830381600087803b1580156106a157600080fd5b505af11580156106b5573d6000803e3d6000fd5b505050506106c161147b565b73ffffffffffffffffffffffffffffffffffffffff166108fc839081150290604051600060405180830381858888f19350505050158015610706573d6000803e3d6000fd5b5061070f61147b565b73ffffffffffffffffffffffffffffffffffffffff167f884edad9ce6fa2440d8a54cc123490eb96d2768479d49ff9c7366125a94243648360405161075491906126fb565b60405180910390a2816005600082825461076e9190612ed3565b92505081905550600b60009054906101000a900473ffffffffffffffffffffffffffffffffffffffff1673ffffffffffffffffffffffffffffffffffffffff166370a082316107bb61147b565b6040518263ffffffff1660e01b81526004016107d79190612aaf565b602060405180830381865afa1580156107f4573d6000803e3d6000fd5b505050506040513d601f19601f820116820180604052508101906108189190612f1c565b9050919050565b6000600854905090565b6000600360009054906101000a900473ffffffffffffffffffffffffffffffffffffffff1673ffffffffffffffffffffffffffffffffffffffff163373ffffffffffffffffffffffffffffffffffffffff16146108bb576040517f08c379a00000000000000000000000000000000000000000000000000000000081526004016108b290612e5b565b60405180910390fd5b8167ffffffffffffffff166007819055506007549050919050565b6000600a54905090565b6000600954905090565b6000600b60009054906101000a900473ffffffffffffffffffffffffffffffffffffffff1673ffffffffffffffffffffffffffffffffffffffff166370a08231836040518263ffffffff1660e01b81526004016109479190612aaf565b602060405180830381865afa158015610964573d6000803e3d6000fd5b505050506040513d601f19601f820116820180604052508101906109889190612f1c565b9050919050565b6060600060025467ffffffffffffffff8111156109af576109ae61252f565b5b6040519080825280602002602001820160405280156109e857816020015b6109d56123e5565b8152602001906001900390816109cd5790505b5090506000805b600254811015610c4a57600060016000838152602001908152602001600020604051610a1b9190613041565b90815260200160405180910390206040518060a00160405290816000820160009054906101000a900473ffffffffffffffffffffffffffffffffffffffff1673ffffffffffffffffffffffffffffffffffffffff1673ffffffffffffffffffffffffffffffffffffffff16815260200160018201548152602001600282018054610aa490612f78565b80601f0160208091040260200160405190810160405280929190818152602001828054610ad090612f78565b8015610b1d5780601f10610af257610100808354040283529160200191610b1d565b820191906000526020600020905b815481529060010190602001808311610b0057829003601f168201915b5050505050815260200160038201604051806040016040529081600082018054610b4690612f78565b80601f0160208091040260200160405190810160405280929190818152602001828054610b7290612f78565b8015610bbf5780601f10610b9457610100808354040283529160200191610bbf565b820191906000526020600020905b815481529060010190602001808311610ba257829003601f168201915b505050505081526020016001820160009054906101000a900460ff16151515158152505081526020016005820160009054906101000a900467ffffffffffffffff1667ffffffffffffffff1667ffffffffffffffff1681525050838381518110610c2c57610c2b613058565b5b60200260200101819052508080610c4290613087565b9150506109ef565b50819250505090565b6000600754905090565b6000600b60009054906101000a900473ffffffffffffffffffffffffffffffffffffffff16905090565b6000818051602081018201805184825260208301602085012081835280955050505050506000915090508060000160009054906101000a900473ffffffffffffffffffffffffffffffffffffffff1690806001015490806002018054610cec90612f78565b80601f0160208091040260200160405190810160405280929190818152602001828054610d1890612f78565b8015610d655780601f10610d3a57610100808354040283529160200191610d65565b820191906000526020600020905b815481529060010190602001808311610d4857829003601f168201915b50505050509080600301604051806040016040529081600082018054610d8a90612f78565b80601f0160208091040260200160405190810160405280929190818152602001828054610db690612f78565b8015610e035780601f10610dd857610100808354040283529160200191610e03565b820191906000526020600020905b815481529060010190602001808311610de657829003601f168201915b505050505081526020016001820160009054906101000a900460ff161515151581525050908060050160009054906101000a900467ffffffffffffffff16905085565b600081341015610e8b576040517f08c379a0000000000000000000000000000000000000000000000000000000008152600401610e829061311b565b60405180910390fd5b600060085483610e9b919061313b565b9050600b60009054906101000a900473ffffffffffffffffffffffffffffffffffffffff1673ffffffffffffffffffffffffffffffffffffffff166340c10f19610ee361147b565b836040518363ffffffff1660e01b8152600401610f01929190612e7b565b600060405180830381600087803b158015610f1b57600080fd5b505af1158015610f2f573d6000803e3d6000fd5b50505050610f3b61147b565b73ffffffffffffffffffffffffffffffffffffffff167fe1fffcc4923d04b559f4d29a8bfc6cda04eb5b0d3c460751c2402c5c5cc9109c84604051610f8091906126fb565b60405180910390a28260056000828254610f9a919061317d565b92505081905550600b60009054906101000a900473ffffffffffffffffffffffffffffffffffffffff1673ffffffffffffffffffffffffffffffffffffffff166370a08231610fe761147b565b6040518263ffffffff1660e01b81526004016110039190612aaf565b602060405180830381865afa158015611020573d6000803e3d6000fd5b505050506040513d601f19601f820116820180604052508101906110449190612f1c565b915050919050565b6110546123e5565b6000826040516110649190612d0f565b90815260200160405180910390206040518060a00160405290816000820160009054906101000a900473ffffffffffffffffffffffffffffffffffffffff1673ffffffffffffffffffffffffffffffffffffffff1673ffffffffffffffffffffffffffffffffffffffff168152602001600182015481526020016002820180546110ed90612f78565b80601f016020809104026020016040519081016040528092919081815260200182805461111990612f78565b80156111665780601f1061113b57610100808354040283529160200191611166565b820191906000526020600020905b81548152906001019060200180831161114957829003601f168201915b505050505081526020016003820160405180604001604052908160008201805461118f90612f78565b80601f01602080910402602001604051908101604052809291908181526020018280546111bb90612f78565b80156112085780601f106111dd57610100808354040283529160200191611208565b820191906000526020600020905b8154815290600101906020018083116111eb57829003601f168201915b505050505081526020016001820160009054906101000a900460ff16151515158152505081526020016005820160009054906101000a900467ffffffffffffffff1667ffffffffffffffff1667ffffffffffffffff16815250509050919050565b6000826000808260405161127d9190612d0f565b908152602001604051809103902060010154116112cf576040517f08c379a00000000000000000000000000000000000000000000000000000000081526004016112c6906131fd565b60405180910390fd5b600061130b8560405180602001604052808760001b6040516020016112f49190613248565b604051602081830303815290604052815250611483565b905060008560405161131d9190612d0f565b9081526020016040518091039020600080820160006101000a81549073ffffffffffffffffffffffffffffffffffffffff0219169055600182016000905560028201600061136b919061243a565b6003820160008082016000611380919061243a565b6001820160006101000a81549060ff021916905550506005820160006101000a81549067ffffffffffffffff02191690555050846040516113c19190612d0f565b60405180910390207f7b5b6b4f71a4fe75f0b4bd74da211ac5d123712fc6fdd8c7c36fe36f18354b5a856040516113f891906126fb565b60405180910390a260019250505092915050565b600061146a600084600067ffffffffffffffff81111561142f5761142e61252f565b5b6040519080825280601f01601f1916602001820160405280156114615781602001600182028036833780820191505090505b506000866114e3565b90506114758161161e565b50505050565b600033905090565b61148b61247a565b60006114968361170f565b905060006114ac6387ed0a6486846071346114e3565b905060006114b98261161e565b90506114c361247a565b6114d6828261175b90919063ffffffff16565b8094505050505092915050565b606060008073fe0000000000000000000000000000000000000373ffffffffffffffffffffffffffffffffffffffff1688856000888a8c60405160200161152f96959493929190613263565b60405160208183030381529060405260405161154b9190612d0f565b600060405180830381855af49150503d8060008114611586576040519150601f19603f3d011682016040523d82523d6000602084013e61158b565b606091505b509150915060011515821515146040518060400160405280601181526020017f6163746f722063616c6c206661696c65640000000000000000000000000000008152509061160f576040517f08c379a00000000000000000000000000000000000000000000000000000000081526004016116069190613316565b60405180910390fd5b50809250505095945050505050565b606060008060008480602001905181019061163991906133f3565b925092509250600067ffffffffffffffff168267ffffffffffffffff1614806116765750607167ffffffffffffffff168267ffffffffffffffff16145b6116b5576040517f08c379a00000000000000000000000000000000000000000000000000000000081526004016116ac906134ae565b60405180910390fd5b600083146116c284611781565b90611703576040517f08c379a00000000000000000000000000000000000000000000000000000000081526004016116fa9190613316565b60405180910390fd5b50809350505050919050565b6060600061171d60406117eb565b905061173360018261181290919063ffffffff16565b61174a83600001518261182290919063ffffffff16565b6117538161184b565b915050919050565b600061177081836118a490919063ffffffff16565b846000018193508290525050505050565b606060008212156117bb5761179582611a4e565b6040516020016117a59190613530565b60405160208183030381529060405290506117e6565b6117c482611a4e565b6040516020016117d49190613530565b60405160208183030381529060405290505b919050565b6117f361248d565b611801816000015183611b1c565b506000816020018181525050919050565b61181e82600483611b95565b5050565b61182f8260028351611ba5565b611846818360000151611d4e90919063ffffffff16565b505050565b60606000826020015114611894576040517f08c379a000000000000000000000000000000000000000000000000000000000815260040161188b906135a2565b60405180910390fd5b8160000151600001519050919050565b606060008060006118b58686611d6a565b8167ffffffffffffffff169150809750819350829450505050600660ff168260ff1614806118e95750600260ff168260ff16145b6118f6576118f56135c2565b5b600660ff168260ff160361193f5761190e8686611d6a565b8167ffffffffffffffff169150809750819350829450505050600260ff168260ff161461193e5761193d6135c2565b5b5b6000818661194d919061317d565b905060008267ffffffffffffffff81111561196b5761196a61252f565b5b6040519080825280601f01601f19166020018201604052801561199d5781602001600182028036833780820191505090505b5090506000808890505b83811015611a30578981815181106119c2576119c1613058565b5b602001015160f81c60f81b8383815181106119e0576119df613058565b5b60200101907effffffffffffffffffffffffffffffffffffffffffffffffffffffffffffff1916908160001a9053508180611a1a90613087565b9250508080611a2890613087565b9150506119a7565b50818489611a3e919061317d565b9650965050505050509250929050565b606060006001611a5d84611ef8565b01905060008167ffffffffffffffff811115611a7c57611a7b61252f565b5b6040519080825280601f01601f191660200182016040528015611aae5781602001600182028036833780820191505090505b509050600082602001820190505b600115611b11578080600190039150507f3031323334353637383961626364656600000000000000000000000000000000600a86061a8153600a8581611b0557611b046135f1565b5b04945060008503611abc575b819350505050919050565b611b246124ad565b6000602083611b339190613620565b14611b5f57602082611b459190613620565b6020611b519190612ed3565b82611b5c919061317d565b91505b818360200181815250506040518084526000815282810160200181811015611b8657600080fd5b80604052505082905092915050565b611ba0838383611ba5565b505050565b60178167ffffffffffffffff1611611be057611bda8160058460ff16901b60ff1617846000015161204b90919063ffffffff16565b50611d49565b60ff8167ffffffffffffffff1611611c3e57611c13601860058460ff16901b17846000015161204b90919063ffffffff16565b50611c388167ffffffffffffffff16600185600001516120b59092919063ffffffff16565b50611d48565b61ffff8167ffffffffffffffff1611611c9d57611c72601960058460ff16901b17846000015161204b90919063ffffffff16565b50611c978167ffffffffffffffff16600285600001516120b59092919063ffffffff16565b50611d47565b63ffffffff8167ffffffffffffffff1611611cfe57611cd3601a60058460ff16901b17846000015161204b90919063ffffffff16565b50611cf88167ffffffffffffffff16600485600001516120b59092919063ffffffff16565b50611d46565b611d1f601b60058460ff16901b17846000015161204b90919063ffffffff16565b50611d448167ffffffffffffffff16600885600001516120b59092919063ffffffff16565b505b5b5b5b505050565b611d566124ad565b611d6283838451612142565b905092915050565b600080600080611d7a8686612225565b9050600185611d89919061317d565b94506000600560e0831660ff16901c90506000601f83169050601c8160ff1610611db657611db56135c2565b5b60188160ff161015611dd9578181888160ff169150955095509550505050611ef1565b60188160ff1603611e2e576000611df08989612225565b9050600188611dff919061317d565b975060188160ff161015611e1657611e156135c2565b5b8281898160ff16915096509650965050505050611ef1565b60198160ff1603611e6f576000611e45898961228c565b9050600288611e54919061317d565b97508281898161ffff16915096509650965050505050611ef1565b601a8160ff1603611eb2576000611e8689896122f3565b9050600488611e95919061317d565b97508281898163ffffffff16915096509650965050505050611ef1565b601b8160ff1614611ec657611ec56135c2565b5b6000611ed2898961235a565b9050600888611ee1919061317d565b9750828189965096509650505050505b9250925092565b600080600090507a184f03e93ff9f4daa797ed6e38ed64bf6a1f0100000000000000008310611f56577a184f03e93ff9f4daa797ed6e38ed64bf6a1f0100000000000000008381611f4c57611f4b6135f1565b5b0492506040810190505b6d04ee2d6d415b85acef81000000008310611f93576d04ee2d6d415b85acef81000000008381611f8957611f886135f1565b5b0492506020810190505b662386f26fc100008310611fc257662386f26fc100008381611fb857611fb76135f1565b5b0492506010810190505b6305f5e1008310611feb576305f5e1008381611fe157611fe06135f1565b5b0492506008810190505b6127108310612010576127108381612006576120056135f1565b5b0492506004810190505b606483106120335760648381612029576120286135f1565b5b0492506002810190505b600a8310612042576001810190505b80915050919050565b6120536124ad565b60008360000151519050600060018261206c919061317d565b9050846020015182106120905761208f8560028361208a919061313b565b6123c1565b5b845160208382010185815381518311156120a8578282525b5050849250505092915050565b6120bd6124ad565b60008460000151519050600081846120d5919061317d565b905085602001518111156120fa576120f9866002836120f4919061313b565b6123c1565b5b600060018561010061210c9190613784565b6121169190612ed3565b905086518281018783198251161781528151841115612133578382525b50508693505050509392505050565b61214a6124ad565b825182111561215857600080fd5b6000846000015151905060008382612170919061317d565b90508560200151811115612195576121948660028361218f919061313b565b6123c1565b5b600080875180518560208301019350808511156121b0578482525b60208901925050505b602086106121f757805182526020826121d2919061317d565b91506020816121e1919061317d565b90506020866121f09190612ed3565b95506121b9565b60006001876020036101000a0390508019825116818451168181178552505050879450505050509392505050565b6000600182612234919061317d565b83511015612277576040517f08c379a000000000000000000000000000000000000000000000000000000000815260040161226e9061381b565b60405180910390fd5b60008260010184015190508091505092915050565b600060028261229b919061317d565b835110156122de576040517f08c379a00000000000000000000000000000000000000000000000000000000081526004016122d59061381b565b60405180910390fd5b60008260020184015190508091505092915050565b6000600482612302919061317d565b83511015612345576040517f08c379a000000000000000000000000000000000000000000000000000000000815260040161233c9061381b565b60405180910390fd5b60008260040184015190508091505092915050565b6000600882612369919061317d565b835110156123ac576040517f08c379a00000000000000000000000000000000000000000000000000000000081526004016123a39061381b565b60405180910390fd5b60008260080184015190508091505092915050565b6000826000015190506123d48383611b1c565b506123df8382611d4e565b50505050565b6040518060a00160405280600073ffffffffffffffffffffffffffffffffffffffff16815260200160008152602001606081526020016124236124c7565b8152602001600067ffffffffffffffff1681525090565b50805461244690612f78565b6000825580601f106124585750612477565b601f01602090049060005260206000209081019061247691906124e3565b5b50565b6040518060200160405280606081525090565b60405180604001604052806124a06124ad565b8152602001600081525090565b604051806040016040528060608152602001600081525090565b6040518060400160405280606081526020016000151581525090565b5b808211156124fc5760008160009055506001016124e4565b5090565b6000604051905090565b600080fd5b600080fd5b600080fd5b600080fd5b6000601f19601f8301169050919050565b7f4e487b7100000000000000000000000000000000000000000000000000000000600052604160045260246000fd5b6125678261251e565b810181811067ffffffffffffffff821117156125865761258561252f565b5b80604052505050565b6000612599612500565b90506125a5828261255e565b919050565b600067ffffffffffffffff8211156125c5576125c461252f565b5b6125ce8261251e565b9050602081019050919050565b82818337600083830152505050565b60006125fd6125f8846125aa565b61258f565b90508281526020810184848401111561261957612618612519565b5b6126248482856125db565b509392505050565b600082601f83011261264157612640612514565b5b81356126518482602086016125ea565b91505092915050565b6000819050919050565b61266d8161265a565b811461267857600080fd5b50565b60008135905061268a81612664565b92915050565b600080604083850312156126a7576126a661250a565b5b600083013567ffffffffffffffff8111156126c5576126c461250f565b5b6126d18582860161262c565b92505060206126e28582860161267b565b9150509250929050565b6126f58161265a565b82525050565b600060208201905061271060008301846126ec565b92915050565b600067ffffffffffffffff82169050919050565b61273381612716565b811461273e57600080fd5b50565b6000813590506127508161272a565b92915050565b60006020828403121561276c5761276b61250a565b5b600061277a84828501612741565b91505092915050565b6000602082840312156127995761279861250a565b5b60006127a78482850161267b565b91505092915050565b600073ffffffffffffffffffffffffffffffffffffffff82169050919050565b60006127db826127b0565b9050919050565b6127eb816127d0565b81146127f657600080fd5b50565b600081359050612808816127e2565b92915050565b6000602082840312156128245761282361250a565b5b6000612832848285016127f9565b91505092915050565b600081519050919050565b600082825260208201905092915050565b6000819050602082019050919050565b612870816127d0565b82525050565b61287f8161265a565b82525050565b600081519050919050565b600082825260208201905092915050565b60005b838110156128bf5780820151818401526020810190506128a4565b60008484015250505050565b60006128d682612885565b6128e08185612890565b93506128f08185602086016128a1565b6128f98161251e565b840191505092915050565b60008115159050919050565b61291981612904565b82525050565b6000604083016000830151848203600086015261293c82826128cb565b91505060208301516129516020860182612910565b508091505092915050565b61296581612716565b82525050565b600060a0830160008301516129836000860182612867565b5060208301516129966020860182612876565b50604083015184820360408601526129ae82826128cb565b915050606083015184820360608601526129c8828261291f565b91505060808301516129dd608086018261295c565b508091505092915050565b60006129f4838361296b565b905092915050565b6000602082019050919050565b6000612a148261283b565b612a1e8185612846565b935083602082028501612a3085612857565b8060005b85811015612a6c5784840389528151612a4d85826129e8565b9450612a58836129fc565b925060208a01995050600181019050612a34565b50829750879550505050505092915050565b60006020820190508181036000830152612a988184612a09565b905092915050565b612aa9816127d0565b82525050565b6000602082019050612ac46000830184612aa0565b92915050565b600060208284031215612ae057612adf61250a565b5b600082013567ffffffffffffffff811115612afe57612afd61250f565b5b612b0a8482850161262c565b91505092915050565b600082825260208201905092915050565b6000612b2f82612885565b612b398185612b13565b9350612b498185602086016128a1565b612b528161251e565b840191505092915050565b60006040830160008301518482036000860152612b7a82826128cb565b9150506020830151612b8f6020860182612910565b508091505092915050565b612ba381612716565b82525050565b600060a082019050612bbe6000830188612aa0565b612bcb60208301876126ec565b8181036040830152612bdd8186612b24565b90508181036060830152612bf18185612b5d565b9050612c006080830184612b9a565b9695505050505050565b600060a083016000830151612c226000860182612867565b506020830151612c356020860182612876565b5060408301518482036040860152612c4d82826128cb565b91505060608301518482036060860152612c67828261291f565b9150506080830151612c7c608086018261295c565b508091505092915050565b60006020820190508181036000830152612ca18184612c0a565b905092915050565b612cb281612904565b82525050565b6000602082019050612ccd6000830184612ca9565b92915050565b600081905092915050565b6000612ce982612885565b612cf38185612cd3565b9350612d038185602086016128a1565b80840191505092915050565b6000612d1b8284612cde565b915081905092915050565b600082825260208201905092915050565b7f6e65656420746f207061796261636b2066697273740000000000000000000000600082015250565b6000612d6d601583612d26565b9150612d7882612d37565b602082019050919050565b60006020820190508181036000830152612d9c81612d60565b9050919050565b7f6e65656420616d6f756e74203e20300000000000000000000000000000000000600082015250565b6000612dd9600f83612d26565b9150612de482612da3565b602082019050919050565b60006020820190508181036000830152612e0881612dcc565b9050919050565b7f63616c6c6572206973206e6f7420746865206f776e6572000000000000000000600082015250565b6000612e45601783612d26565b9150612e5082612e0f565b602082019050919050565b60006020820190508181036000830152612e7481612e38565b9050919050565b6000604082019050612e906000830185612aa0565b612e9d60208301846126ec565b9392505050565b7f4e487b7100000000000000000000000000000000000000000000000000000000600052601160045260246000fd5b6000612ede8261265a565b9150612ee98361265a565b9250828203905081811115612f0157612f00612ea4565b5b92915050565b600081519050612f1681612664565b92915050565b600060208284031215612f3257612f3161250a565b5b6000612f4084828501612f07565b91505092915050565b7f4e487b7100000000000000000000000000000000000000000000000000000000600052602260045260246000fd5b60006002820490506001821680612f9057607f821691505b602082108103612fa357612fa2612f49565b5b50919050565b60008190508160005260206000209050919050565b60008154612fcb81612f78565b612fd58186612cd3565b94506001821660008114612ff0576001811461300557613038565b60ff1983168652811515820286019350613038565b61300e85612fa9565b60005b8381101561303057815481890152600182019150602081019050613011565b838801955050505b50505092915050565b600061304d8284612fbe565b915081905092915050565b7f4e487b7100000000000000000000000000000000000000000000000000000000600052603260045260246000fd5b60006130928261265a565b91507fffffffffffffffffffffffffffffffffffffffffffffffffffffffffffffffff82036130c4576130c3612ea4565b5b600182019050919050565b7f696e76616c696420616d6f756e74000000000000000000000000000000000000600082015250565b6000613105600e83612d26565b9150613110826130cf565b602082019050919050565b60006020820190508181036000830152613134816130f8565b9050919050565b60006131468261265a565b91506131518361265a565b925082820261315f8161265a565b9150828204841483151761317657613175612ea4565b5b5092915050565b60006131888261265a565b91506131938361265a565b92508282019050808211156131ab576131aa612ea4565b5b92915050565b7f6e6f206e65656420746f207061796261636b0000000000000000000000000000600082015250565b60006131e7601283612d26565b91506131f2826131b1565b602082019050919050565b60006020820190508181036000830152613216816131da565b9050919050565b6000819050919050565b6000819050919050565b61324261323d8261321d565b613227565b82525050565b60006132548284613231565b60208201915081905092915050565b600060c0820190506132786000830189612b9a565b61328560208301886126ec565b6132926040830187612b9a565b61329f6060830186612b9a565b81810360808301526132b18185612b24565b905081810360a08301526132c58184612b24565b9050979650505050505050565b600081519050919050565b60006132e8826132d2565b6132f28185612d26565b93506133028185602086016128a1565b61330b8161251e565b840191505092915050565b6000602082019050818103600083015261333081846132dd565b905092915050565b6000819050919050565b61334b81613338565b811461335657600080fd5b50565b60008151905061336881613342565b92915050565b60008151905061337d8161272a565b92915050565b6000613396613391846125aa565b61258f565b9050828152602081018484840111156133b2576133b1612519565b5b6133bd8482856128a1565b509392505050565b600082601f8301126133da576133d9612514565b5b81516133ea848260208601613383565b91505092915050565b60008060006060848603121561340c5761340b61250a565b5b600061341a86828701613359565b935050602061342b8682870161336e565b925050604084015167ffffffffffffffff81111561344c5761344b61250f565b5b613458868287016133c5565b9150509250925092565b7f726573706f6e736520636f646563206e6f7420737570706f7274656400000000600082015250565b6000613498601c83612d26565b91506134a382613462565b602082019050919050565b600060208201905081810360008301526134c78161348b565b9050919050565b7f6163746f72206572726f7220636f6465202d0000000000000000000000000000815250565b600081905092915050565b600061350a826132d2565b61351481856134f4565b93506135248185602086016128a1565b80840191505092915050565b600061353b826134ce565b60128201915061354b82846134ff565b915081905092915050565b7f496e76616c69642043424f520000000000000000000000000000000000000000600082015250565b600061358c600c83612d26565b915061359782613556565b602082019050919050565b600060208201905081810360008301526135bb8161357f565b9050919050565b7f4e487b7100000000000000000000000000000000000000000000000000000000600052600160045260246000fd5b7f4e487b7100000000000000000000000000000000000000000000000000000000600052601260045260246000fd5b600061362b8261265a565b91506136368361265a565b925082613646576136456135f1565b5b828206905092915050565b60008160011c9050919050565b6000808291508390505b60018511156136a85780860481111561368457613683612ea4565b5b60018516156136935780820291505b80810290506136a185613651565b9450613668565b94509492505050565b6000826136c1576001905061377d565b816136cf576000905061377d565b81600181146136e557600281146136ef5761371e565b600191505061377d565b60ff84111561370157613700612ea4565b5b8360020a91508482111561371857613717612ea4565b5b5061377d565b5060208310610133831016604e8410600b84101617156137535782820a90508381111561374e5761374d612ea4565b5b61377d565b613760848484600161365e565b9250905081840481111561377757613776612ea4565b5b81810290505b9392505050565b600061378f8261265a565b915061379a8361265a565b92506137c77fffffffffffffffffffffffffffffffffffffffffffffffffffffffffffffffff84846136b1565b905092915050565b7f736c6963696e67206f7574206f662072616e6765000000000000000000000000600082015250565b6000613805601483612d26565b9150613810826137cf565b602082019050919050565b60006020820190508181036000830152613834816137f8565b905091905056fea2646970667358221220dcaf6196826b1e1ca314b0bb879cafc54f1e41b421326e53e472f761af49212d64736f6c63430008110033",
  "linkReferences": {},
  "deployedLinkReferences": {}
}