{
  "_format": "hh-sol-artifact-1",
  "contractName": "FILL",
  "sourceName": "contracts/FILL.sol",
  "abi": [
    {
      "inputs": [
        {
          "internalType": "address",
          "name": "fleAddr",
          "type": "address"
        }
      ],
      "stateMutability": "nonpayable",
      "type": "constructor"
    },
    {
      "anonymous": false,
      "inputs": [
        {
          "indexed": true,
          "internalType": "uint256",
          "name": "id",
          "type": "uint256"
        },
        {
          "indexed": true,
          "internalType": "address",
          "name": "account",
          "type": "address"
        },
        {
          "indexed": true,
          "internalType": "bytes",
          "name": "minerAddr",
          "type": "bytes"
        },
        {
          "indexed": false,
          "internalType": "uint256",
          "name": "amountFIL",
          "type": "uint256"
        }
      ],
      "name": "Borrow",
      "type": "event"
    },
    {
      "anonymous": false,
      "inputs": [
        {
          "indexed": true,
          "internalType": "address",
          "name": "account",
          "type": "address"
        },
        {
          "indexed": false,
          "internalType": "uint256",
          "name": "amountFIL",
          "type": "uint256"
        },
        {
          "indexed": false,
          "internalType": "uint256",
          "name": "amountFLE",
          "type": "uint256"
        }
      ],
      "name": "Deposit",
      "type": "event"
    },
    {
      "anonymous": false,
      "inputs": [
        {
          "indexed": true,
          "internalType": "uint256",
          "name": "id",
          "type": "uint256"
        },
        {
          "indexed": true,
          "internalType": "address",
          "name": "account",
          "type": "address"
        },
        {
          "indexed": true,
          "internalType": "bytes",
          "name": "minerAddr",
          "type": "bytes"
        },
        {
          "indexed": false,
          "internalType": "uint256",
          "name": "amountFIL",
          "type": "uint256"
        }
      ],
      "name": "Payback",
      "type": "event"
    },
    {
      "anonymous": false,
      "inputs": [
        {
          "indexed": true,
          "internalType": "address",
          "name": "account",
          "type": "address"
        },
        {
          "indexed": false,
          "internalType": "uint256",
          "name": "amountFLE",
          "type": "uint256"
        },
        {
          "indexed": false,
          "internalType": "uint256",
          "name": "amountFIL",
          "type": "uint256"
        }
      ],
      "name": "Redeem",
      "type": "event"
    },
    {
      "anonymous": false,
      "inputs": [
        {
          "indexed": false,
          "internalType": "bytes",
          "name": "minerAddr",
          "type": "bytes"
        },
        {
          "indexed": false,
          "internalType": "bytes",
          "name": "beneficiary",
          "type": "bytes"
        },
        {
          "indexed": false,
          "internalType": "uint256",
          "name": "quota",
          "type": "uint256"
        },
        {
          "indexed": false,
          "internalType": "uint64",
          "name": "expiration",
          "type": "uint64"
        }
      ],
      "name": "StackingMiner",
      "type": "event"
    },
    {
      "anonymous": false,
      "inputs": [
        {
          "indexed": false,
          "internalType": "bytes",
          "name": "minerAddr",
          "type": "bytes"
        },
        {
          "indexed": false,
          "internalType": "bytes",
          "name": "beneficiary",
          "type": "bytes"
        },
        {
          "indexed": false,
          "internalType": "uint256",
          "name": "quota",
          "type": "uint256"
        },
        {
          "indexed": false,
          "internalType": "uint64",
          "name": "expiration",
          "type": "uint64"
        }
      ],
      "name": "UnstackingMiner",
      "type": "event"
    },
    {
      "inputs": [],
      "name": "allBorrows",
      "outputs": [
        {
          "components": [
            {
              "internalType": "uint256",
              "name": "id",
              "type": "uint256"
            },
            {
              "internalType": "address",
              "name": "account",
              "type": "address"
            },
            {
              "internalType": "uint256",
              "name": "amount",
              "type": "uint256"
            },
            {
              "internalType": "bytes",
              "name": "minerAddr",
              "type": "bytes"
            },
            {
              "internalType": "uint256",
              "name": "interestRate",
              "type": "uint256"
            },
            {
              "internalType": "uint256",
              "name": "timestamp",
              "type": "uint256"
            },
            {
              "internalType": "bool",
              "name": "isPayback",
              "type": "bool"
            }
          ],
          "internalType": "struct FILLInterface.BorrowInfo[]",
          "name": "",
          "type": "tuple[]"
        }
      ],
      "stateMutability": "view",
      "type": "function"
    },
    {
      "inputs": [
        {
          "internalType": "bytes",
          "name": "minerAddr",
          "type": "bytes"
        },
        {
          "internalType": "address",
          "name": "blindAccount",
          "type": "address"
        }
      ],
      "name": "bindMiner",
      "outputs": [
        {
          "internalType": "bool",
          "name": "",
          "type": "bool"
        }
      ],
      "stateMutability": "nonpayable",
      "type": "function"
    },
    {
      "inputs": [
        {
          "internalType": "bytes",
          "name": "minerAddr",
          "type": "bytes"
        },
        {
          "internalType": "uint256",
          "name": "amount",
          "type": "uint256"
        },
        {
          "internalType": "uint256",
          "name": "interest_rate",
          "type": "uint256"
        },
        {
          "internalType": "uint256",
          "name": "slippage",
          "type": "uint256"
        }
      ],
      "name": "borrow",
      "outputs": [
        {
          "internalType": "uint256",
          "name": "",
          "type": "uint256"
        }
      ],
      "stateMutability": "nonpayable",
      "type": "function"
    },
    {
      "inputs": [
        {
          "internalType": "bytes",
          "name": "minerAddress",
          "type": "bytes"
        }
      ],
      "name": "changeBeneficiaryToOwner",
      "outputs": [],
      "stateMutability": "nonpayable",
      "type": "function"
    },
    {
      "inputs": [
        {
          "internalType": "bytes",
          "name": "minerAddress",
          "type": "bytes"
        }
      ],
      "name": "confirmBeneficiary",
      "outputs": [],
      "stateMutability": "nonpayable",
      "type": "function"
    },
    {
      "inputs": [
        {
          "internalType": "uint256",
          "name": "amountFIL",
          "type": "uint256"
        },
        {
          "internalType": "uint256",
          "name": "exchRate",
          "type": "uint256"
        },
        {
          "internalType": "uint256",
          "name": "slippage",
          "type": "uint256"
        }
      ],
      "name": "deposit",
      "outputs": [
        {
          "internalType": "uint256",
          "name": "",
          "type": "uint256"
        }
      ],
      "stateMutability": "payable",
      "type": "function"
    },
    {
      "inputs": [],
      "name": "depositsBalance",
      "outputs": [
        {
          "internalType": "uint256",
          "name": "",
          "type": "uint256"
        }
      ],
      "stateMutability": "view",
      "type": "function"
    },
    {
      "inputs": [],
      "name": "exchangeRate",
      "outputs": [
        {
          "internalType": "uint256",
          "name": "",
          "type": "uint256"
        }
      ],
      "stateMutability": "view",
      "type": "function"
    },
    {
      "inputs": [],
      "name": "feeRate",
      "outputs": [
        {
          "internalType": "uint256",
          "name": "",
          "type": "uint256"
        }
      ],
      "stateMutability": "view",
      "type": "function"
    },
    {
      "inputs": [],
      "name": "fleAddress",
      "outputs": [
        {
          "internalType": "address",
          "name": "",
          "type": "address"
        }
      ],
      "stateMutability": "view",
      "type": "function"
    },
    {
      "inputs": [
        {
          "internalType": "address",
          "name": "account",
          "type": "address"
        }
      ],
      "name": "fleBalanceOf",
      "outputs": [
        {
          "internalType": "uint256",
          "name": "",
          "type": "uint256"
        }
      ],
      "stateMutability": "view",
      "type": "function"
    },
    {
      "inputs": [],
      "name": "interestRate",
      "outputs": [
        {
          "internalType": "uint256",
          "name": "",
          "type": "uint256"
        }
      ],
      "stateMutability": "view",
      "type": "function"
    },
    {
      "inputs": [
        {
          "internalType": "bytes",
          "name": "minerAddress",
          "type": "bytes"
        },
        {
          "internalType": "uint256",
          "name": "borrowId",
          "type": "uint256"
        }
      ],
      "name": "payback",
      "outputs": [
        {
          "internalType": "uint256",
          "name": "",
          "type": "uint256"
        }
      ],
      "stateMutability": "nonpayable",
      "type": "function"
    },
    {
      "inputs": [
        {
          "internalType": "uint256",
          "name": "amountFLE",
          "type": "uint256"
        },
        {
          "internalType": "uint256",
          "name": "exchRate",
          "type": "uint256"
        },
        {
          "internalType": "uint256",
          "name": "slippage",
          "type": "uint256"
        }
      ],
      "name": "redeem",
      "outputs": [
        {
          "internalType": "uint256",
          "name": "",
          "type": "uint256"
        }
      ],
      "stateMutability": "nonpayable",
      "type": "function"
    },
    {
      "inputs": [
        {
          "internalType": "address",
          "name": "account",
          "type": "address"
        },
        {
          "internalType": "uint256",
          "name": "amount",
          "type": "uint256"
        }
      ],
      "name": "send",
      "outputs": [],
      "stateMutability": "nonpayable",
      "type": "function"
    },
    {
      "inputs": [
        {
          "internalType": "uint64",
          "name": "newRate",
          "type": "uint64"
        }
      ],
      "name": "setExchangeRate",
      "outputs": [
        {
          "internalType": "uint256",
          "name": "",
          "type": "uint256"
        }
      ],
      "stateMutability": "nonpayable",
      "type": "function"
    },
    {
      "inputs": [
        {
          "internalType": "uint64",
          "name": "newRate",
          "type": "uint64"
        }
      ],
      "name": "setFeeRate",
      "outputs": [
        {
          "internalType": "uint256",
          "name": "",
          "type": "uint256"
        }
      ],
      "stateMutability": "nonpayable",
      "type": "function"
    },
    {
      "inputs": [
        {
          "internalType": "uint64",
          "name": "newRate",
          "type": "uint64"
        }
      ],
      "name": "setInterestRate",
      "outputs": [
        {
          "internalType": "uint256",
          "name": "",
          "type": "uint256"
        }
      ],
      "stateMutability": "nonpayable",
      "type": "function"
    },
    {
      "inputs": [
        {
          "internalType": "bytes",
          "name": "minerAddr",
          "type": "bytes"
        }
      ],
      "name": "staskingMiner",
      "outputs": [
        {
          "internalType": "bool",
          "name": "",
          "type": "bool"
        }
      ],
      "stateMutability": "nonpayable",
      "type": "function"
    },
    {
      "inputs": [
        {
          "internalType": "bytes",
          "name": "minerAddr",
          "type": "bytes"
        }
      ],
      "name": "ubindMiner",
      "outputs": [
        {
          "internalType": "bool",
          "name": "",
          "type": "bool"
        }
      ],
      "stateMutability": "nonpayable",
      "type": "function"
    },
    {
      "inputs": [
        {
          "internalType": "bytes",
          "name": "minerAddr",
          "type": "bytes"
        }
      ],
      "name": "unstaskingMiner",
      "outputs": [
        {
          "internalType": "bool",
          "name": "",
          "type": "bool"
        }
      ],
      "stateMutability": "nonpayable",
      "type": "function"
    },
    {
      "inputs": [
        {
          "internalType": "address",
          "name": "account",
          "type": "address"
        }
      ],
      "name": "userBorrows",
      "outputs": [
        {
          "components": [
            {
              "internalType": "uint256",
              "name": "id",
              "type": "uint256"
            },
            {
              "internalType": "address",
              "name": "account",
              "type": "address"
            },
            {
              "internalType": "uint256",
              "name": "amount",
              "type": "uint256"
            },
            {
              "internalType": "bytes",
              "name": "minerAddr",
              "type": "bytes"
            },
            {
              "internalType": "uint256",
              "name": "interestRate",
              "type": "uint256"
            },
            {
              "internalType": "uint256",
              "name": "timestamp",
              "type": "uint256"
            },
            {
              "internalType": "bool",
              "name": "isPayback",
              "type": "bool"
            }
          ],
          "internalType": "struct FILLInterface.BorrowInfo[]",
          "name": "",
          "type": "tuple[]"
        }
      ],
      "stateMutability": "view",
      "type": "function"
    },
    {
      "inputs": [
        {
          "internalType": "address",
          "name": "account",
          "type": "address"
        }
      ],
      "name": "userMiners",
      "outputs": [
        {
          "internalType": "bytes[]",
          "name": "",
          "type": "bytes[]"
        }
      ],
      "stateMutability": "view",
      "type": "function"
    },
    {
      "inputs": [],
      "name": "utilizationRate",
      "outputs": [
        {
          "internalType": "uint256",
          "name": "",
          "type": "uint256"
        }
      ],
      "stateMutability": "view",
      "type": "function"
    },
    {
      "inputs": [
        {
          "internalType": "bytes",
          "name": "minerAddress",
          "type": "bytes"
        },
        {
          "internalType": "uint256",
          "name": "amount",
          "type": "uint256"
        }
      ],
      "name": "withdrawBalanceFromMiner",
      "outputs": [],
      "stateMutability": "nonpayable",
      "type": "function"
    }
  ],
  "bytecode": "0x60806040523480156200001157600080fd5b50604051620061003803806200610083398181016040528101906200003791906200015d565b80600f60006101000a81548173ffffffffffffffffffffffffffffffffffffffff021916908373ffffffffffffffffffffffffffffffffffffffff16021790555062000088620000eb60201b60201c565b600560006101000a81548173ffffffffffffffffffffffffffffffffffffffff021916908373ffffffffffffffffffffffffffffffffffffffff1602179055506103e8600b81905550620f4240600c8190555061a988600d81905550506200018f565b600033905090565b600080fd5b600073ffffffffffffffffffffffffffffffffffffffff82169050919050565b60006200012582620000f8565b9050919050565b620001378162000118565b81146200014357600080fd5b50565b60008151905062000157816200012c565b92915050565b600060208284031215620001765762000175620000f3565b5b6000620001868482850162000146565b91505092915050565b615f61806200019f6000396000f3fe6080604052600436106101655760003560e01c80637a75f8e8116100d1578063a22667d41161008a578063bf3d3a4811610064578063bf3d3a48146105a4578063d0679d34146105e1578063e88436b71461060a578063f0836b441461064757610165565b8063a22667d4146104ff578063a2c7fdd01461052a578063b81922051461056757610165565b80637a75f8e8146103db5780637b3193e0146104045780637c3a00fd1461044157806388f9c63c1461046c578063946e5375146104a9578063978bbdb9146104d457610165565b80634e442b8e116101235780634e442b8e146102a75780636002290b146102d057806365f941e8146102f95780636c321c8a1461033657806373f8d42b1461036157806377593cc41461039e57610165565b8062aeef8a1461016a57806309bbe8881461019a578063138fbe71146101d75780632010caac146102025780633ba0b9a91461023f578063459770f61461026a575b600080fd5b610184600480360381019061017f919061443e565b610684565b60405161019191906144a0565b60405180910390f35b3480156101a657600080fd5b506101c160048036038101906101bc919061465f565b61089f565b6040516101ce91906146d6565b60405180910390f35b3480156101e357600080fd5b506101ec610a40565b6040516101f991906144a0565b60405180910390f35b34801561020e57600080fd5b5061022960048036038101906102249190614731565b610a48565b60405161023691906144a0565b60405180910390f35b34801561024b57600080fd5b50610254610af5565b60405161026191906144a0565b60405180910390f35b34801561027657600080fd5b50610291600480360381019061028c9190614731565b610aff565b60405161029e91906144a0565b60405180910390f35b3480156102b357600080fd5b506102ce60048036038101906102c9919061475e565b610bac565b005b3480156102dc57600080fd5b506102f760048036038101906102f291906147a7565b610c99565b005b34801561030557600080fd5b50610320600480360381019061031b9190614731565b610d68565b60405161032d91906144a0565b60405180910390f35b34801561034257600080fd5b5061034b610e15565b60405161035891906144a0565b60405180910390f35b34801561036d57600080fd5b506103886004803603810190610383919061475e565b610e1f565b60405161039591906146d6565b60405180910390f35b3480156103aa57600080fd5b506103c560048036038101906103c09190614803565b610fb1565b6040516103d29190614a3a565b60405180910390f35b3480156103e757600080fd5b5061040260048036038101906103fd919061475e565b611218565b005b34801561041057600080fd5b5061042b6004803603810190610426919061475e565b61131f565b60405161043891906146d6565b60405180910390f35b34801561044d57600080fd5b5061045661165f565b60405161046391906144a0565b60405180910390f35b34801561047857600080fd5b50610493600480360381019061048e9190614803565b611669565b6040516104a091906144a0565b60405180910390f35b3480156104b557600080fd5b506104be61170e565b6040516104cb9190614a3a565b60405180910390f35b3480156104e057600080fd5b506104e96118f9565b6040516104f691906144a0565b60405180910390f35b34801561050b57600080fd5b50610514611903565b6040516105219190614a6b565b60405180910390f35b34801561053657600080fd5b50610551600480360381019061054c919061475e565b61192d565b60405161055e91906146d6565b60405180910390f35b34801561057357600080fd5b5061058e6004803603810190610589919061443e565b611bf7565b60405161059b91906144a0565b60405180910390f35b3480156105b057600080fd5b506105cb60048036038101906105c69190614a86565b611e1e565b6040516105d891906144a0565b60405180910390f35b3480156105ed57600080fd5b5061060860048036038101906106039190614b09565b612019565b005b34801561061657600080fd5b50610631600480360381019061062c91906147a7565b6120f4565b60405161063e91906144a0565b60405180910390f35b34801561065357600080fd5b5061066e60048036038101906106699190614803565b6123d7565b60405161067b9190614c0b565b60405180910390f35b600082828534146106ca576040517f08c379a00000000000000000000000000000000000000000000000000000000081526004016106c190614cb0565b60405180910390fd5b6000600c54620f4240886106de9190614cff565b6106e89190614d70565b9050600f60009054906101000a900473ffffffffffffffffffffffffffffffffffffffff1673ffffffffffffffffffffffffffffffffffffffff166340c10f196107306125c1565b836040518363ffffffff1660e01b815260040161074e929190614da1565b600060405180830381600087803b15801561076857600080fd5b505af115801561077c573d6000803e3d6000fd5b505050506107886125c1565b73ffffffffffffffffffffffffffffffffffffffff167f90890809c654f11d6e72a28fa60149770a0d11ec6c92319d6ceb2bb0a4ea1a1588836040516107cf929190614dca565b60405180910390a286600660008282546107e99190614df3565b92505081905550600f60009054906101000a900473ffffffffffffffffffffffffffffffffffffffff1673ffffffffffffffffffffffffffffffffffffffff166370a082316108366125c1565b6040518263ffffffff1660e01b81526004016108529190614a6b565b602060405180830381865afa15801561086f573d6000803e3d6000fd5b505050506040513d601f19601f820116820180604052508101906108939190614e3c565b93505050509392505050565b6000600560009054906101000a900473ffffffffffffffffffffffffffffffffffffffff1673ffffffffffffffffffffffffffffffffffffffff163373ffffffffffffffffffffffffffffffffffffffff1614610931576040517f08c379a000000000000000000000000000000000000000000000000000000000815260040161092890614eb5565b60405180910390fd5b600073ffffffffffffffffffffffffffffffffffffffff166000846040516109599190614f11565b908152602001604051809103902060009054906101000a900473ffffffffffffffffffffffffffffffffffffffff1673ffffffffffffffffffffffffffffffffffffffff1603610a3657816000846040516109b49190614f11565b908152602001604051809103902060006101000a81548173ffffffffffffffffffffffffffffffffffffffff021916908373ffffffffffffffffffffffffffffffffffffffff160217905550600183908060018154018082558091505060019003906000526020600020016000909190919091509081610a349190615134565b505b6001905092915050565b600047905090565b6000600560009054906101000a900473ffffffffffffffffffffffffffffffffffffffff1673ffffffffffffffffffffffffffffffffffffffff163373ffffffffffffffffffffffffffffffffffffffff1614610ada576040517f08c379a0000000000000000000000000000000000000000000000000000000008152600401610ad190614eb5565b60405180910390fd5b8167ffffffffffffffff16600c81905550600c549050919050565b6000600c54905090565b6000600560009054906101000a900473ffffffffffffffffffffffffffffffffffffffff1673ffffffffffffffffffffffffffffffffffffffff163373ffffffffffffffffffffffffffffffffffffffff1614610b91576040517f08c379a0000000000000000000000000000000000000000000000000000000008152600401610b8890614eb5565b60405180910390fd5b8167ffffffffffffffff16600b81905550600b549050919050565b600560009054906101000a900473ffffffffffffffffffffffffffffffffffffffff1673ffffffffffffffffffffffffffffffffffffffff163373ffffffffffffffffffffffffffffffffffffffff1614610c3c576040517f08c379a0000000000000000000000000000000000000000000000000000000008152600401610c3390614eb5565b60405180910390fd5b6000610c47826125c9565b9050600060405180606001604052808360200151600001518152602001836020015160200151815260200183602001516040015167ffffffffffffffff168152509050610c94838261266c565b505050565b600560009054906101000a900473ffffffffffffffffffffffffffffffffffffffff1673ffffffffffffffffffffffffffffffffffffffff163373ffffffffffffffffffffffffffffffffffffffff1614610d29576040517f08c379a0000000000000000000000000000000000000000000000000000000008152600401610d2090614eb5565b60405180910390fd5b610d638260405180602001604052808460001b604051602001610d4c9190615231565b60405160208183030381529060405281525061269f565b505050565b6000600560009054906101000a900473ffffffffffffffffffffffffffffffffffffffff1673ffffffffffffffffffffffffffffffffffffffff163373ffffffffffffffffffffffffffffffffffffffff1614610dfa576040517f08c379a0000000000000000000000000000000000000000000000000000000008152600401610df190614eb5565b60405180910390fd5b8167ffffffffffffffff16600d81905550600d549050919050565b6000600e54905090565b6000610e296125c1565b828173ffffffffffffffffffffffffffffffffffffffff16600082604051610e519190614f11565b908152602001604051809103902060009054906101000a900473ffffffffffffffffffffffffffffffffffffffff1673ffffffffffffffffffffffffffffffffffffffff1614610ed6576040517f08c379a0000000000000000000000000000000000000000000000000000000008152600401610ecd90615298565b60405180910390fd5b600084604051610ee69190614f11565b908152602001604051809103902060006101000a81549073ffffffffffffffffffffffffffffffffffffffff021916905560005b600180549050811015610fa55784610f31906152dd565b60001c60018281548110610f4857610f47615344565b5b90600052602060002001610f5b906153cd565b60001c03610f925760018181548110610f7757610f76615344565b5b906000526020600020016000610f8d91906141ff565b610fa5565b8080610f9d9061543e565b915050610f1a565b50600192505050919050565b6060600060045467ffffffffffffffff811115610fd157610fd06144d6565b5b60405190808252806020026020018201604052801561100a57816020015b610ff761423f565b815260200190600190039081610fef5790505b5090506000805b60045481101561120d578473ffffffffffffffffffffffffffffffffffffffff166003600083815260200190815260200160002060010160009054906101000a900473ffffffffffffffffffffffffffffffffffffffff1673ffffffffffffffffffffffffffffffffffffffff16036111fa57600360008281526020019081526020016000206040518060e0016040529081600082015481526020016001820160009054906101000a900473ffffffffffffffffffffffffffffffffffffffff1673ffffffffffffffffffffffffffffffffffffffff1673ffffffffffffffffffffffffffffffffffffffff1681526020016002820154815260200160038201805461111c90614f57565b80601f016020809104026020016040519081016040528092919081815260200182805461114890614f57565b80156111955780601f1061116a57610100808354040283529160200191611195565b820191906000526020600020905b81548152906001019060200180831161117857829003601f168201915b5050505050815260200160048201548152602001600582015481526020016006820160009054906101000a900460ff1615151515815250508383815181106111e0576111df615344565b5b602002602001018190525081806111f69061543e565b9250505b80806112059061543e565b915050611011565b508192505050919050565b600560009054906101000a900473ffffffffffffffffffffffffffffffffffffffff1673ffffffffffffffffffffffffffffffffffffffff163373ffffffffffffffffffffffffffffffffffffffff16146112a8576040517f08c379a000000000000000000000000000000000000000000000000000000000815260040161129f90614eb5565b60405180910390fd5b60006112b3826126ff565b90506000604051806060016040528083600001518152602001604051806040016040528060405180604001604052806001815260200160008152508152602001600015158152508152602001600067ffffffffffffffff16815250905061131a838261266c565b505050565b60006113296125c1565b828173ffffffffffffffffffffffffffffffffffffffff166000826040516113519190614f11565b908152602001604051809103902060009054906101000a900473ffffffffffffffffffffffffffffffffffffffff1673ffffffffffffffffffffffffffffffffffffffff16146113d6576040517f08c379a00000000000000000000000000000000000000000000000000000000081526004016113cd90615298565b60405180910390fd5b8360006002826040516113e99190614f11565b9081526020016040518091039020600101541461143b576040517f08c379a0000000000000000000000000000000000000000000000000000000008152600401611432906154d2565b60405180910390fd5b6000611446866125c9565b9050600061145b8260200151602001516127a2565b611464906152dd565b60001c9050600081116114ac576040517f08c379a00000000000000000000000000000000000000000000000000000000081526004016114a39061553e565b60405180910390fd5b4382602001516040015167ffffffffffffffff1611611500576040517f08c379a00000000000000000000000000000000000000000000000000000000081526004016114f7906155aa565b60405180910390fd5b6115468760405180606001604052808560200151600001518152602001856020015160200151815260200185602001516040015167ffffffffffffffff1681525061266c565b6040518060a001604052808881526020018281526020018281526020016000815260200183602001516040015167ffffffffffffffff168152506002886040516115909190614f11565b908152602001604051809103902060008201518160000190816115b39190615134565b5060208201518160010155604082015181600201556060820151816003015560808201518160040160006101000a81548167ffffffffffffffff021916908367ffffffffffffffff1602179055509050507f23e0a25675e5d66d51862680bb67e1865ad5f76c9badf7118ccd92a6e46e047187836020015160000151838560200151604001516040516116499493929190615623565b60405180910390a1600195505050505050919050565b6000600d54905090565b6000600f60009054906101000a900473ffffffffffffffffffffffffffffffffffffffff1673ffffffffffffffffffffffffffffffffffffffff166370a08231836040518263ffffffff1660e01b81526004016116c69190614a6b565b602060405180830381865afa1580156116e3573d6000803e3d6000fd5b505050506040513d601f19601f820116820180604052508101906117079190614e3c565b9050919050565b6060600060045467ffffffffffffffff81111561172e5761172d6144d6565b5b60405190808252806020026020018201604052801561176757816020015b61175461423f565b81526020019060019003908161174c5790505b50905060005b6004548110156118f157600360008281526020019081526020016000206040518060e0016040529081600082015481526020016001820160009054906101000a900473ffffffffffffffffffffffffffffffffffffffff1673ffffffffffffffffffffffffffffffffffffffff1673ffffffffffffffffffffffffffffffffffffffff1681526020016002820154815260200160038201805461180f90614f57565b80601f016020809104026020016040519081016040528092919081815260200182805461183b90614f57565b80156118885780601f1061185d57610100808354040283529160200191611888565b820191906000526020600020905b81548152906001019060200180831161186b57829003601f168201915b5050505050815260200160048201548152602001600582015481526020016006820160009054906101000a900460ff1615151515815250508282815181106118d3576118d2615344565b5b602002602001018190525080806118e99061543e565b91505061176d565b508091505090565b6000600b54905090565b6000600f60009054906101000a900473ffffffffffffffffffffffffffffffffffffffff16905090565b60006119376125c1565b828173ffffffffffffffffffffffffffffffffffffffff1660008260405161195f9190614f11565b908152602001604051809103902060009054906101000a900473ffffffffffffffffffffffffffffffffffffffff1673ffffffffffffffffffffffffffffffffffffffff16146119e4576040517f08c379a00000000000000000000000000000000000000000000000000000000081526004016119db90615298565b60405180910390fd5b8360006002826040516119f79190614f11565b90815260200160405180910390206001015411611a49576040517f08c379a0000000000000000000000000000000000000000000000000000000008152600401611a40906156c2565b60405180910390fd5b600285604051611a599190614f11565b908152602001604051809103902060030154600286604051611a7b9190614f11565b90815260200160405180910390206002015414611acd576040517f08c379a0000000000000000000000000000000000000000000000000000000008152600401611ac49061572e565b60405180910390fd5b6000611ad8866126ff565b90506000604051806060016040528083600001518152602001604051806040016040528060405180604001604052806001815260200160008152508152602001600015158152508152602001600067ffffffffffffffff168152509050611b3f878261266c565b600287604051611b4f9190614f11565b908152602001604051809103902060008082016000611b6e91906141ff565b6001820160009055600282016000905560038201600090556004820160006101000a81549067ffffffffffffffff021916905550507f02802f4b1b4130a3545c8a5871d4ccbb78ddd4a87284d4dd812fe49b9cc14ff487826000015160008460400151604051611be19493929190615789565b60405180910390a1600195505050505050919050565b60008282600f60009054906101000a900473ffffffffffffffffffffffffffffffffffffffff1673ffffffffffffffffffffffffffffffffffffffff16639dc29fac611c416125c1565b886040518363ffffffff1660e01b8152600401611c5f929190614da1565b600060405180830381600087803b158015611c7957600080fd5b505af1158015611c8d573d6000803e3d6000fd5b505050506000620f4240600c5488611ca59190614cff565b611caf9190614d70565b9050611cb96125c1565b73ffffffffffffffffffffffffffffffffffffffff166108fc829081150290604051600060405180830381858888f19350505050158015611cfe573d6000803e3d6000fd5b50611d076125c1565b73ffffffffffffffffffffffffffffffffffffffff167fe5b754fb1abb7f01b499791d0b820ae3b6af3424ac1c59768edb53f4ec31a9298883604051611d4e929190614dca565b60405180910390a28060076000828254611d689190614df3565b92505081905550600f60009054906101000a900473ffffffffffffffffffffffffffffffffffffffff1673ffffffffffffffffffffffffffffffffffffffff166370a08231611db56125c1565b6040518263ffffffff1660e01b8152600401611dd19190614a6b565b602060405180830381865afa158015611dee573d6000803e3d6000fd5b505050506040513d601f19601f82011682018060405250810190611e129190614e3c565b93505050509392505050565b6000846000600282604051611e339190614f11565b90815260200160405180910390206001015411611e85576040517f08c379a0000000000000000000000000000000000000000000000000000000008152600401611e7c906156c2565b60405180910390fd5b8383600288604051611e979190614f11565b908152602001604051809103902060010154600289604051611eb99190614f11565b90815260200160405180910390206002015488611ed69190614df3565b11611f16576040517f08c379a0000000000000000000000000000000000000000000000000000000008152600401611f0d90615828565b60405180910390fd5b6000611f2b89611f246125c1565b8a8a6128ff565b90508760028a604051611f3e9190614f11565b90815260200160405180910390206002016000828254611f5e9190614df3565b925050819055508760086000828254611f779190614df3565b92505081905550611f888989612a47565b88604051611f969190614f11565b6040518091039020611fa66125c1565b73ffffffffffffffffffffffffffffffffffffffff16827ff663635428bb63bc7d97389593d8a285c64fbc7812c04cc414c05ce56cdcde828b604051611fec91906144a0565b60405180910390a46003600082815260200190815260200160002060020154945050505050949350505050565b600560009054906101000a900473ffffffffffffffffffffffffffffffffffffffff1673ffffffffffffffffffffffffffffffffffffffff163373ffffffffffffffffffffffffffffffffffffffff16146120a9576040517f08c379a00000000000000000000000000000000000000000000000000000000081526004016120a090614eb5565b60405180910390fd5b8173ffffffffffffffffffffffffffffffffffffffff166108fc829081150290604051600060405180830381858888f193505050501580156120ef573d6000803e3d6000fd5b505050565b600080600360008481526020019081526020016000206040518060e0016040529081600082015481526020016001820160009054906101000a900473ffffffffffffffffffffffffffffffffffffffff1673ffffffffffffffffffffffffffffffffffffffff1673ffffffffffffffffffffffffffffffffffffffff1681526020016002820154815260200160038201805461218f90614f57565b80601f01602080910402602001604051908101604052809291908181526020018280546121bb90614f57565b80156122085780601f106121dd57610100808354040283529160200191612208565b820191906000526020600020905b8154815290600101906020018083116121eb57829003601f168201915b5050505050815260200160048201548152602001600582015481526020016006820160009054906101000a900460ff1615151515815250509050600015158160c0015115151461228d576040517f08c379a000000000000000000000000000000000000000000000000000000000815260040161228490615894565b60405180910390fd5b600081604001519050600080600d5482846122a89190614cff565b6122b29190614d70565b9050600081846122c29190614df3565b905083600960008282546122d69190614df3565b9250508190555081600a60008282546122ef9190614df3565b9250508190555060016003600089815260200190815260200160002060060160006101000a81548160ff021916908315150217905550836002896040516123369190614f11565b908152602001604051809103902060030160008282546123569190614df3565b925050819055508760405161236b9190614f11565b604051809103902061237b6125c1565b73ffffffffffffffffffffffffffffffffffffffff16887f09e2ab6ed0272b6af25991ef10a455c5fbe03b9d9ccc4647158fcc871c13254f846040516123c191906144a0565b60405180910390a4809550505050505092915050565b6060600060018054905067ffffffffffffffff8111156123fa576123f96144d6565b5b60405190808252806020026020018201604052801561242d57816020015b60608152602001906001900390816124185790505b5090506000805b6001805490508110156125b6578473ffffffffffffffffffffffffffffffffffffffff1660006001838154811061246e5761246d615344565b5b906000526020600020016040516124859190615937565b908152602001604051809103902060009054906101000a900473ffffffffffffffffffffffffffffffffffffffff1673ffffffffffffffffffffffffffffffffffffffff16036125a357600181815481106124e3576124e2615344565b5b9060005260206000200180546124f890614f57565b80601f016020809104026020016040519081016040528092919081815260200182805461252490614f57565b80156125715780601f1061254657610100808354040283529160200191612571565b820191906000526020600020905b81548152906001019060200180831161255457829003601f168201915b505050505083838151811061258957612588615344565b5b6020026020010181905250818061259f9061543e565b9250505b80806125ae9061543e565b915050612434565b508192505050919050565b600033905090565b6125d1614294565b60008067ffffffffffffffff8111156125ed576125ec6144d6565b5b6040519080825280601f01601f19166020018201604052801561261f5781602001600182028036833780820191505090505b509050600061263663f7e4e2998584600034612ab6565b9050600061264382612bf1565b905061264d614294565b6126608282612ce290919063ffffffff16565b80945050505050919050565b6000612677826130e3565b9050600061268d635d9dfc2c8584607134612ab6565b905061269881612bf1565b5050505050565b6126a76142ba565b60006126b283613165565b905060006126c86387ed0a648684607134612ab6565b905060006126d582612bf1565b90506126df6142ba565b6126f282826131b190919063ffffffff16565b8094505050505092915050565b6127076142cd565b60008067ffffffffffffffff811115612723576127226144d6565b5b6040519080825280601f01601f1916602001820160405280156127555781602001600182028036833780820191505090505b509050600061276c63c33a1cc68584600034612ab6565b9050600061277982612bf1565b90506127836142cd565b61279682826131d790919063ffffffff16565b80945050505050919050565b6060600060018360000151516127b89190614df3565b67ffffffffffffffff8111156127d1576127d06144d6565b5b6040519080825280601f01601f1916602001820160405280156128035781602001600182028036833780820191505090505b50905082602001511561285957600160f81b8160008151811061282957612828615344565b5b60200101907effffffffffffffffffffffffffffffffffffffffffffffffffffffffffffff1916908160001a9053505b60006001905060005b8460000151518110156128f4578460000151818151811061288657612885615344565b5b602001015160f81c60f81b8383815181106128a4576128a3615344565b5b60200101907effffffffffffffffffffffffffffffffffffffffffffffffffffffffffffff1916908160001a90535081806128de9061543e565b92505080806128ec9061543e565b915050612862565b508192505050919050565b60006040518060e0016040528060045481526020018573ffffffffffffffffffffffffffffffffffffffff168152602001848152602001868152602001838152602001428152602001600015158152506003600060045481526020019081526020016000206000820151816000015560208201518160010160006101000a81548173ffffffffffffffffffffffffffffffffffffffff021916908373ffffffffffffffffffffffffffffffffffffffff1602179055506040820151816002015560608201518160030190816129d49190615134565b506080820151816004015560a0820151816005015560c08201518160060160006101000a81548160ff02191690831515021790555090505060046000815480929190612a1f9061543e565b9190505550600360006004548152602001908152602001600020600001549050949350505050565b6000612aa5600084600067ffffffffffffffff811115612a6a57612a696144d6565b5b6040519080825280601f01601f191660200182016040528015612a9c5781602001600182028036833780820191505090505b50600086612ab6565b9050612ab081612bf1565b50505050565b606060008073fe0000000000000000000000000000000000000373ffffffffffffffffffffffffffffffffffffffff1688856000888a8c604051602001612b029695949392919061594e565b604051602081830303815290604052604051612b1e9190614f11565b600060405180830381855af49150503d8060008114612b59576040519150601f19603f3d011682016040523d82523d6000602084013e612b5e565b606091505b509150915060011515821515146040518060400160405280601181526020017f6163746f722063616c6c206661696c656400000000000000000000000000000081525090612be2576040517f08c379a0000000000000000000000000000000000000000000000000000000008152600401612bd99190615a01565b60405180910390fd5b50809250505095945050505050565b6060600080600084806020019051810190612c0c9190615ade565b925092509250600067ffffffffffffffff168267ffffffffffffffff161480612c495750607167ffffffffffffffff168267ffffffffffffffff16145b612c88576040517f08c379a0000000000000000000000000000000000000000000000000000000008152600401612c7f90615b99565b60405180910390fd5b60008314612c9584613262565b90612cd6576040517f08c379a0000000000000000000000000000000000000000000000000000000008152600401612ccd9190615a01565b60405180910390fd5b50809350505050919050565b6060600080612cfa82856132cc90919063ffffffff16565b809350819250505060028114612d1357612d12615bb9565b5b612d2682856132cc90919063ffffffff16565b809350819250505060028114612d3f57612d3e615bb9565b5b612d52828561331b90919063ffffffff16565b86600001516000018194508290525050612d7582856132cc90919063ffffffff16565b809350819250505060038114612d8e57612d8d615bb9565b5b612da1828561331b90919063ffffffff16565b8093508194505050600083511115612dd157612dbc836134c5565b85600001516020015160000181905250612e47565b6040518060400160405280600067ffffffffffffffff811115612df757612df66144d6565b5b6040519080825280601f01601f191660200182016040528015612e295781602001600182028036833780820191505090505b50815260200160001515815250856000015160200151600001819052505b612e5a828561331b90919063ffffffff16565b8093508194505050600083511115612e8a57612e75836134c5565b85600001516020015160200181905250612f00565b6040518060400160405280600067ffffffffffffffff811115612eb057612eaf6144d6565b5b6040519080825280601f01601f191660200182016040528015612ee25781602001600182028036833780820191505090505b50815260200160001515815250856000015160200151602001819052505b612f13828561366c90919063ffffffff16565b8660000151602001516040018194508267ffffffffffffffff1667ffffffffffffffff168152505050612f4f82856136bb90919063ffffffff16565b6130dc57612f6682856132cc90919063ffffffff16565b809350819250505060058114612f7f57612f7e615bb9565b5b612f92828561331b90919063ffffffff16565b86602001516000018194508290525050612fb5828561331b90919063ffffffff16565b8093508194505050600083511115612fe157612fd0836134c5565b856020015160200181905250613053565b6040518060400160405280600067ffffffffffffffff811115613007576130066144d6565b5b6040519080825280601f01601f1916602001820160405280156130395781602001600182028036833780820191505090505b508152602001600015158152508560200151602001819052505b613066828561366c90919063ffffffff16565b86602001516040018194508267ffffffffffffffff1667ffffffffffffffff16815250505061309e828561372790919063ffffffff16565b8660200151606001819450821515151581525050506130c6828561372790919063ffffffff16565b8660200151608001819450821515151581525050505b5050505050565b606060006130f1604061379f565b90506131076003826137c690919063ffffffff16565b61311e8360000151826137d690919063ffffffff16565b61313d61312e84602001516127a2565b826137d690919063ffffffff16565b6131548360400151826137ff90919063ffffffff16565b61315d8161380f565b915050919050565b60606000613173604061379f565b90506131896001826137c690919063ffffffff16565b6131a08360000151826137d690919063ffffffff16565b6131a98161380f565b915050919050565b60006131c6818361331b90919063ffffffff16565b846000018193508290525050505050565b6000806131ed82846132cc90919063ffffffff16565b80935081925050506002811461320657613205615bb9565b5b613219828461331b90919063ffffffff16565b85600001819450829052505061323882846136bb90919063ffffffff16565b61325c5761324f828461331b90919063ffffffff16565b8560200181945082905250505b50505050565b6060600082121561329c5761327682613868565b6040516020016132869190615c4a565b60405160208183030381529060405290506132c7565b6132a582613868565b6040516020016132b59190615c4a565b60405160208183030381529060405290505b919050565b6000806000806132dc8686613936565b8167ffffffffffffffff169150809750819350829450505050600460ff168260ff161461330c5761330b615bb9565b5b80859350935050509250929050565b6060600080600061332c8686613936565b8167ffffffffffffffff169150809750819350829450505050600660ff168260ff1614806133605750600260ff168260ff16145b61336d5761336c615bb9565b5b600660ff168260ff16036133b6576133858686613936565b8167ffffffffffffffff169150809750819350829450505050600260ff168260ff16146133b5576133b4615bb9565b5b5b600081866133c49190614df3565b905060008267ffffffffffffffff8111156133e2576133e16144d6565b5b6040519080825280601f01601f1916602001820160405280156134145781602001600182028036833780820191505090505b5090506000808890505b838110156134a75789818151811061343957613438615344565b5b602001015160f81c60f81b83838151811061345757613456615344565b5b60200101907effffffffffffffffffffffffffffffffffffffffffffffffffffffffffffff1916908160001a90535081806134919061543e565b925050808061349f9061543e565b91505061341e565b508184896134b59190614df3565b9650965050505050509250929050565b6134cd6142e7565b600082510361350b57604051806040016040528060405180604001604052806001815260200160008152508152602001600015158152509050613667565b60006001835161351b9190615c70565b67ffffffffffffffff811115613534576135336144d6565b5b6040519080825280601f01601f1916602001820160405280156135665781602001600182028036833780820191505090505b5090506000600160f81b8460008151811061358457613583615344565b5b602001015160f81c60f81b7effffffffffffffffffffffffffffffffffffffffffffffffffffffffffffff1916036135bb57600190505b6000600190505b845181101561364a578481815181106135de576135dd615344565b5b602001015160f81c60f81b836001836135f79190615c70565b8151811061360857613607615344565b5b60200101907effffffffffffffffffffffffffffffffffffffffffffffffffffffffffffff1916908160001a90535080806136429061543e565b9150506135c2565b506040518060400160405280838152602001821515815250925050505b919050565b60008060008061367c8686613936565b8167ffffffffffffffff169150809750819350829450505050600060ff168260ff16146136ac576136ab615bb9565b5b80859350935050509250929050565b60007ff6000000000000000000000000000000000000000000000000000000000000008383815181106136f1576136f0615344565b5b602001015160f81c60f81b7effffffffffffffffffffffffffffffffffffffffffffffffffffffffffffff191614905092915050565b6000806000806137378686613936565b8167ffffffffffffffff169150809750819350829450505050600760ff168260ff161461376757613766615bb9565b5b601560ff1681148061377c5750601460ff1681145b61378957613788615bb9565b5b601460ff16811415859350935050509250929050565b6137a7614303565b6137b5816000015183613ac4565b506000816020018181525050919050565b6137d282600483613b3d565b5050565b6137e38260028351613b4d565b6137fa818360000151613cf690919063ffffffff16565b505050565b61380b82600083613b4d565b5050565b60606000826020015114613858576040517f08c379a000000000000000000000000000000000000000000000000000000000815260040161384f90615cf0565b60405180910390fd5b8160000151600001519050919050565b60606000600161387784613d12565b01905060008167ffffffffffffffff811115613896576138956144d6565b5b6040519080825280601f01601f1916602001820160405280156138c85781602001600182028036833780820191505090505b509050600082602001820190505b60011561392b578080600190039150507f3031323334353637383961626364656600000000000000000000000000000000600a86061a8153600a858161391f5761391e614d41565b5b049450600085036138d6575b819350505050919050565b6000806000806139468686613e65565b90506001856139559190614df3565b94506000600560e0831660ff16901c90506000601f83169050601c8160ff161061398257613981615bb9565b5b60188160ff1610156139a5578181888160ff169150955095509550505050613abd565b60188160ff16036139fa5760006139bc8989613e65565b90506001886139cb9190614df3565b975060188160ff1610156139e2576139e1615bb9565b5b8281898160ff16915096509650965050505050613abd565b60198160ff1603613a3b576000613a118989613ecc565b9050600288613a209190614df3565b97508281898161ffff16915096509650965050505050613abd565b601a8160ff1603613a7e576000613a528989613f33565b9050600488613a619190614df3565b97508281898163ffffffff16915096509650965050505050613abd565b601b8160ff1614613a9257613a91615bb9565b5b6000613a9e8989613f9a565b9050600888613aad9190614df3565b9750828189965096509650505050505b9250925092565b613acc614323565b6000602083613adb9190615d10565b14613b0757602082613aed9190615d10565b6020613af99190615c70565b82613b049190614df3565b91505b818360200181815250506040518084526000815282810160200181811015613b2e57600080fd5b80604052505082905092915050565b613b48838383613b4d565b505050565b60178167ffffffffffffffff1611613b8857613b828160058460ff16901b60ff1617846000015161400190919063ffffffff16565b50613cf1565b60ff8167ffffffffffffffff1611613be657613bbb601860058460ff16901b17846000015161400190919063ffffffff16565b50613be08167ffffffffffffffff166001856000015161406b9092919063ffffffff16565b50613cf0565b61ffff8167ffffffffffffffff1611613c4557613c1a601960058460ff16901b17846000015161400190919063ffffffff16565b50613c3f8167ffffffffffffffff166002856000015161406b9092919063ffffffff16565b50613cef565b63ffffffff8167ffffffffffffffff1611613ca657613c7b601a60058460ff16901b17846000015161400190919063ffffffff16565b50613ca08167ffffffffffffffff166004856000015161406b9092919063ffffffff16565b50613cee565b613cc7601b60058460ff16901b17846000015161400190919063ffffffff16565b50613cec8167ffffffffffffffff166008856000015161406b9092919063ffffffff16565b505b5b5b5b505050565b613cfe614323565b613d0a838384516140f8565b905092915050565b600080600090507a184f03e93ff9f4daa797ed6e38ed64bf6a1f0100000000000000008310613d70577a184f03e93ff9f4daa797ed6e38ed64bf6a1f0100000000000000008381613d6657613d65614d41565b5b0492506040810190505b6d04ee2d6d415b85acef81000000008310613dad576d04ee2d6d415b85acef81000000008381613da357613da2614d41565b5b0492506020810190505b662386f26fc100008310613ddc57662386f26fc100008381613dd257613dd1614d41565b5b0492506010810190505b6305f5e1008310613e05576305f5e1008381613dfb57613dfa614d41565b5b0492506008810190505b6127108310613e2a576127108381613e2057613e1f614d41565b5b0492506004810190505b60648310613e4d5760648381613e4357613e42614d41565b5b0492506002810190505b600a8310613e5c576001810190505b80915050919050565b6000600182613e749190614df3565b83511015613eb7576040517f08c379a0000000000000000000000000000000000000000000000000000000008152600401613eae90615d8d565b60405180910390fd5b60008260010184015190508091505092915050565b6000600282613edb9190614df3565b83511015613f1e576040517f08c379a0000000000000000000000000000000000000000000000000000000008152600401613f1590615d8d565b60405180910390fd5b60008260020184015190508091505092915050565b6000600482613f429190614df3565b83511015613f85576040517f08c379a0000000000000000000000000000000000000000000000000000000008152600401613f7c90615d8d565b60405180910390fd5b60008260040184015190508091505092915050565b6000600882613fa99190614df3565b83511015613fec576040517f08c379a0000000000000000000000000000000000000000000000000000000008152600401613fe390615d8d565b60405180910390fd5b60008260080184015190508091505092915050565b614009614323565b6000836000015151905060006001826140229190614df3565b90508460200151821061404657614045856002836140409190614cff565b6141db565b5b8451602083820101858153815183111561405e578282525b5050849250505092915050565b614073614323565b600084600001515190506000818461408b9190614df3565b905085602001518111156140b0576140af866002836140aa9190614cff565b6141db565b5b60006001856101006140c29190615ee0565b6140cc9190615c70565b9050865182810187831982511617815281518411156140e9578382525b50508693505050509392505050565b614100614323565b825182111561410e57600080fd5b60008460000151519050600083826141269190614df3565b9050856020015181111561414b5761414a866002836141459190614cff565b6141db565b5b60008087518051856020830101935080851115614166578482525b60208901925050505b602086106141ad57805182526020826141889190614df3565b91506020816141979190614df3565b90506020866141a69190615c70565b955061416f565b60006001876020036101000a0390508019825116818451168181178552505050879450505050509392505050565b6000826000015190506141ee8383613ac4565b506141f98382613cf6565b50505050565b50805461420b90614f57565b6000825580601f1061421d575061423c565b601f01602090049060005260206000209081019061423b919061433d565b5b50565b6040518060e0016040528060008152602001600073ffffffffffffffffffffffffffffffffffffffff168152602001600081526020016060815260200160008152602001600081526020016000151581525090565b60405180604001604052806142a761435a565b81526020016142b461437a565b81525090565b6040518060200160405280606081525090565b604051806040016040528060608152602001606081525090565b6040518060400160405280606081526020016000151581525090565b6040518060400160405280614316614323565b8152602001600081525090565b604051806040016040528060608152602001600081525090565b5b8082111561435657600081600090555060010161433e565b5090565b6040518060400160405280606081526020016143746143bd565b81525090565b6040518060a00160405280606081526020016143946142e7565b8152602001600067ffffffffffffffff1681526020016000151581526020016000151581525090565b60405180606001604052806143d06142e7565b81526020016143dd6142e7565b8152602001600067ffffffffffffffff1681525090565b6000604051905090565b600080fd5b600080fd5b6000819050919050565b61441b81614408565b811461442657600080fd5b50565b60008135905061443881614412565b92915050565b600080600060608486031215614457576144566143fe565b5b600061446586828701614429565b935050602061447686828701614429565b925050604061448786828701614429565b9150509250925092565b61449a81614408565b82525050565b60006020820190506144b56000830184614491565b92915050565b600080fd5b600080fd5b6000601f19601f8301169050919050565b7f4e487b7100000000000000000000000000000000000000000000000000000000600052604160045260246000fd5b61450e826144c5565b810181811067ffffffffffffffff8211171561452d5761452c6144d6565b5b80604052505050565b60006145406143f4565b905061454c8282614505565b919050565b600067ffffffffffffffff82111561456c5761456b6144d6565b5b614575826144c5565b9050602081019050919050565b82818337600083830152505050565b60006145a461459f84614551565b614536565b9050828152602081018484840111156145c0576145bf6144c0565b5b6145cb848285614582565b509392505050565b600082601f8301126145e8576145e76144bb565b5b81356145f8848260208601614591565b91505092915050565b600073ffffffffffffffffffffffffffffffffffffffff82169050919050565b600061462c82614601565b9050919050565b61463c81614621565b811461464757600080fd5b50565b60008135905061465981614633565b92915050565b60008060408385031215614676576146756143fe565b5b600083013567ffffffffffffffff81111561469457614693614403565b5b6146a0858286016145d3565b92505060206146b18582860161464a565b9150509250929050565b60008115159050919050565b6146d0816146bb565b82525050565b60006020820190506146eb60008301846146c7565b92915050565b600067ffffffffffffffff82169050919050565b61470e816146f1565b811461471957600080fd5b50565b60008135905061472b81614705565b92915050565b600060208284031215614747576147466143fe565b5b60006147558482850161471c565b91505092915050565b600060208284031215614774576147736143fe565b5b600082013567ffffffffffffffff81111561479257614791614403565b5b61479e848285016145d3565b91505092915050565b600080604083850312156147be576147bd6143fe565b5b600083013567ffffffffffffffff8111156147dc576147db614403565b5b6147e8858286016145d3565b92505060206147f985828601614429565b9150509250929050565b600060208284031215614819576148186143fe565b5b60006148278482850161464a565b91505092915050565b600081519050919050565b600082825260208201905092915050565b6000819050602082019050919050565b61486581614408565b82525050565b61487481614621565b82525050565b600081519050919050565b600082825260208201905092915050565b60005b838110156148b4578082015181840152602081019050614899565b60008484015250505050565b60006148cb8261487a565b6148d58185614885565b93506148e5818560208601614896565b6148ee816144c5565b840191505092915050565b614902816146bb565b82525050565b600060e083016000830151614920600086018261485c565b506020830151614933602086018261486b565b506040830151614946604086018261485c565b506060830151848203606086015261495e82826148c0565b9150506080830151614973608086018261485c565b5060a083015161498660a086018261485c565b5060c083015161499960c08601826148f9565b508091505092915050565b60006149b08383614908565b905092915050565b6000602082019050919050565b60006149d082614830565b6149da818561483b565b9350836020820285016149ec8561484c565b8060005b85811015614a285784840389528151614a0985826149a4565b9450614a14836149b8565b925060208a019950506001810190506149f0565b50829750879550505050505092915050565b60006020820190508181036000830152614a5481846149c5565b905092915050565b614a6581614621565b82525050565b6000602082019050614a806000830184614a5c565b92915050565b60008060008060808587031215614aa057614a9f6143fe565b5b600085013567ffffffffffffffff811115614abe57614abd614403565b5b614aca878288016145d3565b9450506020614adb87828801614429565b9350506040614aec87828801614429565b9250506060614afd87828801614429565b91505092959194509250565b60008060408385031215614b2057614b1f6143fe565b5b6000614b2e8582860161464a565b9250506020614b3f85828601614429565b9150509250929050565b600081519050919050565b600082825260208201905092915050565b6000819050602082019050919050565b6000614b8183836148c0565b905092915050565b6000602082019050919050565b6000614ba182614b49565b614bab8185614b54565b935083602082028501614bbd85614b65565b8060005b85811015614bf95784840389528151614bda8582614b75565b9450614be583614b89565b925060208a01995050600181019050614bc1565b50829750879550505050505092915050565b60006020820190508181036000830152614c258184614b96565b905092915050565b600082825260208201905092915050565b7f616d6f756e7446494c20646f6573206e6f74206d61746368206d73672e76616c60008201527f7565000000000000000000000000000000000000000000000000000000000000602082015250565b6000614c9a602283614c2d565b9150614ca582614c3e565b604082019050919050565b60006020820190508181036000830152614cc981614c8d565b9050919050565b7f4e487b7100000000000000000000000000000000000000000000000000000000600052601160045260246000fd5b6000614d0a82614408565b9150614d1583614408565b9250828202614d2381614408565b91508282048414831517614d3a57614d39614cd0565b5b5092915050565b7f4e487b7100000000000000000000000000000000000000000000000000000000600052601260045260246000fd5b6000614d7b82614408565b9150614d8683614408565b925082614d9657614d95614d41565b5b828204905092915050565b6000604082019050614db66000830185614a5c565b614dc36020830184614491565b9392505050565b6000604082019050614ddf6000830185614491565b614dec6020830184614491565b9392505050565b6000614dfe82614408565b9150614e0983614408565b9250828201905080821115614e2157614e20614cd0565b5b92915050565b600081519050614e3681614412565b92915050565b600060208284031215614e5257614e516143fe565b5b6000614e6084828501614e27565b91505092915050565b7f63616c6c6572206973206e6f7420746865206f776e6572000000000000000000600082015250565b6000614e9f601783614c2d565b9150614eaa82614e69565b602082019050919050565b60006020820190508181036000830152614ece81614e92565b9050919050565b600081905092915050565b6000614eeb8261487a565b614ef58185614ed5565b9350614f05818560208601614896565b80840191505092915050565b6000614f1d8284614ee0565b915081905092915050565b7f4e487b7100000000000000000000000000000000000000000000000000000000600052602260045260246000fd5b60006002820490506001821680614f6f57607f821691505b602082108103614f8257614f81614f28565b5b50919050565b60008190508160005260206000209050919050565b60006020601f8301049050919050565b600082821b905092915050565b600060088302614fea7fffffffffffffffffffffffffffffffffffffffffffffffffffffffffffffffff82614fad565b614ff48683614fad565b95508019841693508086168417925050509392505050565b6000819050919050565b600061503161502c61502784614408565b61500c565b614408565b9050919050565b6000819050919050565b61504b83615016565b61505f61505782615038565b848454614fba565b825550505050565b600090565b615074615067565b61507f818484615042565b505050565b5b818110156150a35761509860008261506c565b600181019050615085565b5050565b601f8211156150e8576150b981614f88565b6150c284614f9d565b810160208510156150d1578190505b6150e56150dd85614f9d565b830182615084565b50505b505050565b600082821c905092915050565b600061510b600019846008026150ed565b1980831691505092915050565b600061512483836150fa565b9150826002028217905092915050565b61513d8261487a565b67ffffffffffffffff811115615156576151556144d6565b5b6151608254614f57565b61516b8282856150a7565b600060209050601f83116001811461519e576000841561518c578287015190505b6151968582615118565b8655506151fe565b601f1984166151ac86614f88565b60005b828110156151d4578489015182556001820191506020850194506020810190506151af565b868310156151f157848901516151ed601f8916826150fa565b8355505b6001600288020188555050505b505050505050565b6000819050919050565b6000819050919050565b61522b61522682615206565b615210565b82525050565b600061523d828461521a565b60208201915081905092915050565b7f6e6f742062696e64206163636f756e7400000000000000000000000000000000600082015250565b6000615282601083614c2d565b915061528d8261524c565b602082019050919050565b600060208201905081810360008301526152b181615275565b9050919050565b6000819050602082019050919050565b60006152d48251615206565b80915050919050565b60006152e88261487a565b826152f2846152b8565b90506152fd816152c8565b9250602082101561533d576153387fffffffffffffffffffffffffffffffffffffffffffffffffffffffffffffffff83602003600802614fad565b831692505b5050919050565b7f4e487b7100000000000000000000000000000000000000000000000000000000600052603260045260246000fd5b60008154905061538281614f57565b9050919050565b60008160001c9050919050565b6000819050919050565b60006153b36153ae83615389565b615396565b9050919050565b60006153c682546153a0565b9050919050565b60006153d882615373565b82601f8211156153ee576153eb84614f88565b90505b6153f7816153ba565b92506020821015615437576154327fffffffffffffffffffffffffffffffffffffffffffffffffffffffffffffffff83602003600802614fad565b831692505b5050919050565b600061544982614408565b91507fffffffffffffffffffffffffffffffffffffffffffffffffffffffffffffffff820361547b5761547a614cd0565b5b600182019050919050565b7f6e65656420746f20756e7374616b696e67206669727374000000000000000000600082015250565b60006154bc601783614c2d565b91506154c782615486565b602082019050919050565b600060208201905081810360008301526154eb816154af565b9050919050565b7f6e6565642071756f7461203e2030000000000000000000000000000000000000600082015250565b6000615528600e83614c2d565b9150615533826154f2565b602082019050919050565b600060208201905081810360008301526155578161551b565b9050919050565b7f65787069726174696f6e20696e76616c69640000000000000000000000000000600082015250565b6000615594601283614c2d565b915061559f8261555e565b602082019050919050565b600060208201905081810360008301526155c381615587565b9050919050565b600082825260208201905092915050565b60006155e68261487a565b6155f081856155ca565b9350615600818560208601614896565b615609816144c5565b840191505092915050565b61561d816146f1565b82525050565b6000608082019050818103600083015261563d81876155db565b9050818103602083015261565181866155db565b90506156606040830185614491565b61566d6060830184615614565b95945050505050565b7f6e656564207374616b696e672066697273740000000000000000000000000000600082015250565b60006156ac601283614c2d565b91506156b782615676565b602082019050919050565b600060208201905081810360008301526156db8161569f565b9050919050565b7f706179206261636b206669727374200000000000000000000000000000000000600082015250565b6000615718600f83614c2d565b9150615723826156e2565b602082019050919050565b600060208201905081810360008301526157478161570b565b9050919050565b6000819050919050565b600061577361576e6157698461574e565b61500c565b614408565b9050919050565b61578381615758565b82525050565b600060808201905081810360008301526157a381876155db565b905081810360208301526157b781866155db565b90506157c6604083018561577a565b6157d36060830184615614565b95945050505050565b7f6e6f7420656e6f75676820746f20626f726f7700000000000000000000000000600082015250565b6000615812601383614c2d565b915061581d826157dc565b602082019050919050565b6000602082019050818103600083015261584181615805565b9050919050565b7f6e6f206e656564207061796261636b0000000000000000000000000000000000600082015250565b600061587e600f83614c2d565b915061588982615848565b602082019050919050565b600060208201905081810360008301526158ad81615871565b9050919050565b600081546158c181614f57565b6158cb8186614ed5565b945060018216600081146158e657600181146158fb5761592e565b60ff198316865281151582028601935061592e565b61590485614f88565b60005b8381101561592657815481890152600182019150602081019050615907565b838801955050505b50505092915050565b600061594382846158b4565b915081905092915050565b600060c0820190506159636000830189615614565b6159706020830188614491565b61597d6040830187615614565b61598a6060830186615614565b818103608083015261599c81856155db565b905081810360a08301526159b081846155db565b9050979650505050505050565b600081519050919050565b60006159d3826159bd565b6159dd8185614c2d565b93506159ed818560208601614896565b6159f6816144c5565b840191505092915050565b60006020820190508181036000830152615a1b81846159c8565b905092915050565b6000819050919050565b615a3681615a23565b8114615a4157600080fd5b50565b600081519050615a5381615a2d565b92915050565b600081519050615a6881614705565b92915050565b6000615a81615a7c84614551565b614536565b905082815260208101848484011115615a9d57615a9c6144c0565b5b615aa8848285614896565b509392505050565b600082601f830112615ac557615ac46144bb565b5b8151615ad5848260208601615a6e565b91505092915050565b600080600060608486031215615af757615af66143fe565b5b6000615b0586828701615a44565b9350506020615b1686828701615a59565b925050604084015167ffffffffffffffff811115615b3757615b36614403565b5b615b4386828701615ab0565b9150509250925092565b7f726573706f6e736520636f646563206e6f7420737570706f7274656400000000600082015250565b6000615b83601c83614c2d565b9150615b8e82615b4d565b602082019050919050565b60006020820190508181036000830152615bb281615b76565b9050919050565b7f4e487b7100000000000000000000000000000000000000000000000000000000600052600160045260246000fd5b7f6163746f72206572726f7220636f6465202d0000000000000000000000000000815250565b600081905092915050565b6000615c24826159bd565b615c2e8185615c0e565b9350615c3e818560208601614896565b80840191505092915050565b6000615c5582615be8565b601282019150615c658284615c19565b915081905092915050565b6000615c7b82614408565b9150615c8683614408565b9250828203905081811115615c9e57615c9d614cd0565b5b92915050565b7f496e76616c69642043424f520000000000000000000000000000000000000000600082015250565b6000615cda600c83614c2d565b9150615ce582615ca4565b602082019050919050565b60006020820190508181036000830152615d0981615ccd565b9050919050565b6000615d1b82614408565b9150615d2683614408565b925082615d3657615d35614d41565b5b828206905092915050565b7f736c6963696e67206f7574206f662072616e6765000000000000000000000000600082015250565b6000615d77601483614c2d565b9150615d8282615d41565b602082019050919050565b60006020820190508181036000830152615da681615d6a565b9050919050565b60008160011c9050919050565b6000808291508390505b6001851115615e0457808604811115615de057615ddf614cd0565b5b6001851615615def5780820291505b8081029050615dfd85615dad565b9450615dc4565b94509492505050565b600082615e1d5760019050615ed9565b81615e2b5760009050615ed9565b8160018114615e415760028114615e4b57615e7a565b6001915050615ed9565b60ff841115615e5d57615e5c614cd0565b5b8360020a915084821115615e7457615e73614cd0565b5b50615ed9565b5060208310610133831016604e8410600b8410161715615eaf5782820a905083811115615eaa57615ea9614cd0565b5b615ed9565b615ebc8484846001615dba565b92509050818404811115615ed357615ed2614cd0565b5b81810290505b9392505050565b6000615eeb82614408565b9150615ef683614408565b9250615f237fffffffffffffffffffffffffffffffffffffffffffffffffffffffffffffffff8484615e0d565b90509291505056fea264697066735822122054e133b00576862af11c8f66618f4eb053914caac5f0eea08973c3bf10d82f1964736f6c63430008110033",
  "linkReferences": {},
  "deployedLinkReferences": {}
}